:020000040000fa
:080000000002040000000000f2
:020000040000fa
:04000800920300005f
:020000040000fa
:04000c00920300005b
:020000040000fa
:040010009203000057
:020000040000fa
:040014009203000053
:020000040000fa
:04001800920300004f
:020000040000fa
:04001c00920300004b
:020000040000fa
:040020009203000047
:020000040000fa
:040024009203000043
:020000040000fa
:04002800920300003f
:020000040000fa
:04002c00920300003b
:020000040000fa
:040030009203000037
:020000040000fa
:0400340002030000c3
:020000040000fa
:04003800920300002f
:020000040000fa
:04003c00920300002b
:020000040000fa
:040040009203000027
:020000040000fa
:040044009203000023
:020000040000fa
:04004800fa020000b8
:020000040000fa
:04004c00920300001b
:020000040000fa
:040050009203000017
:020000040000fa
:040054009203000013
:020000040000fa
:04005800920300000f
:020000040000fa
:04005c006403000039
:020000040000fa
:040060009203000007
:020000040000fa
:040064009203000003
:020000040000fa
:0400680092030000ff
:020000040000fa
:04006c0092030000fb
:020000040000fa
:0400700092030000f7
:020000040000fa
:0400740092030000f3
:020000040000fa
:0400780092030000ef
:020000040000fa
:04007c0092030000eb
:020000040000fa
:0400800092030000e7
:020000040000fa
:0400840092030000e3
:020000040000fa
:0400880092030000df
:020000040000fa
:04008c0092030000db
:020000040000fa
:0400900092030000d7
:020000040000fa
:040094002203000043
:020000040000fa
:0400980092030000cf
:020000040000fa
:04009c0092030000cb
:020000040000fa
:0400a00092030000c7
:020000040000fa
:0400a40092030000c3
:020000040000fa
:0400a80092030000bf
:020000040000fa
:0400ac0092030000bb
:020000040000fa
:0400b00092030000b7
:020000040000fa
:0400b40092030000b3
:020000040000fa
:0400b80092030000af
:020000040000fa
:0400bc0092030000ab
:020000040000fa
:0400c00092030000a7
:020000040000fa
:0400c40092030000a3
:020000040000fa
:0400c800920300009f
:020000040000fa
:0400cc00920300009b
:020000040000fa
:0400d0009203000097
:020000040000fa
:0400d4009203000093
:020000040000fa
:0400d800920300008f
:020000040000fa
:0400dc00920300008b
:020000040000fa
:0400e0009203000087
:020000040000fa
:0400e4009203000083
:020000040000fa
:0400e800920300007f
:020000040000fa
:0400ec00920300007b
:020000040000fa
:0400f0009203000077
:020000040000fa
:0400f4009203000073
:020000040000fa
:0400f800920300006f
:020000040000fa
:0400fc00920300006b
:020000040000fa
:040100009203000066
:020000040000fa
:040104009203000062
:020000040000fa
:04010800920300005e
:020000040000fa
:04010c00920300005a
:020000040000fa
:040110009203000056
:020000040000fa
:040114009203000052
:020000040000fa
:04011800920300004e
:020000040000fa
:04011c00920300004a
:020000040000fa
:040120009203000046
:020000040000fa
:040124009203000042
:020000040000fa
:04012800920300003e
:020000040000fa
:04012c00920300003a
:020000040000fa
:040130009203000036
:020000040000fa
:040134009203000032
:020000040000fa
:04013800920300002e
:020000040000fa
:04013c00920300002a
:020000040000fa
:040140009203000026
:020000040000fa
:040144009203000022
:020000040000fa
:04014800920300001e
:020000040000fa
:04014c00920300001a
:020000040000fa
:040150009203000016
:020000040000fa
:040154009203000012
:020000040000fa
:04015800920300000e
:020000040000fa
:04015c00920300000a
:020000040000fa
:040160009203000006
:020000040000fa
:040164009203000002
:020000040000fa
:0401680092030000fe
:020000040000fa
:04016c0092030000fa
:020000040000fa
:0401700092030000f6
:020000040000fa
:0401740092030000f2
:020000040000fa
:0401780092030000ee
:020000040000fa
:04017c0092030000ea
:020000040000fa
:0401800092030000e6
:020000040000fa
:0401840092030000e2
:020000040000fa
:0401880092030000de
:020000040000fa
:04018c0092030000da
:020000040000fa
:0401900092030000d6
:020000040000fa
:0401940092030000d2
:020000040000fa
:0401980092030000ce
:020000040000fa
:04019c0092030000ca
:020000040000fa
:0401a00092030000c6
:020000040000fa
:0401a40092030000c2
:020000040000fa
:0401a80092030000be
:020000040000fa
:0401ac0092030000ba
:020000040000fa
:0401b00092030000b6
:020000040000fa
:0401b40092030000b2
:020000040000fa
:0401b80092030000ae
:020000040000fa
:0401bc0092030000aa
:020000040000fa
:0401c00092030000a6
:020000040000fa
:0401c40092030000a2
:020000040000fa
:0401c800920300009e
:020000040000fa
:0401cc00920300009a
:020000040000fa
:0401d0009203000096
:020000040000fa
:0401d4009203000092
:020000040000fa
:0401d800920300008e
:020000040000fa
:0401dc00920300008a
:020000040000fa
:0401e0009203000086
:020000040000fa
:0401e4009203000082
:020000040000fa
:0401e800920300007e
:020000040000fa
:0401ec00920300007a
:020000040000fa
:0401f0009203000076
:020000040000fa
:0401f4009203000072
:020000040000fa
:0401f800920300006e
:020000040000fa
:0401fc00920300006a
:020000040000fa
:040200009203000065
:020000040000fa
:040204009203000061
:020000040000fa
:04020800920300005d
:020000040000fa
:04020c009203000059
:020000040000fa
:040210009203000055
:020000040000fa
:040214009203000051
:020000040000fa
:04021800920300004d
:020000040000fa
:04021c009203000049
:020000040000fa
:040220009203000045
:020000040000fa
:040224009203000041
:020000040000fa
:04022800920300003d
:020000040000fa
:04022c009203000039
:020000040000fa
:040230009203000035
:020000040000fa
:040234009203000031
:020000040000fa
:04023800920300002d
:020000040000fa
:04023c009203000029
:020000040000fa
:040240009203000025
:020000040000fa
:040244009203000021
:020000040000fa
:04024800920300001d
:020000040000fa
:04024c009203000019
:020000040000fa
:040250009203000015
:020000040000fa
:040254009203000011
:020000040000fa
:04025800920300000d
:020000040000fa
:04025c009203000009
:020000040000fa
:040260009203000005
:020000040000fa
:040264009203000001
:020000040000fa
:0402680092030000fd
:020000040000fa
:04026c0092030000f9
:020000040000fa
:0402700092030000f5
:020000040000fa
:0402740092030000f1
:020000040000fa
:0402780092030000ed
:020000040000fa
:04027c0092030000e9
:020000040000fa
:0402800092030000e5
:020000040000fa
:100400002f0421000eff2c000e01880000000000c8
:10041000000020000000e000020032000001200087
:100420002002880014000700c00007000000e00060
:1004300003003a002099210001002000020037004b
:100440000000200001002000810f70000100320038
:100450000f000700000020000000e0000200320052
:100460000000020000000000fe0602000000000084
:100470000040da000000fe00200020000000e00044
:1004800002003200100020009001880000000600e9
:10049000a1028800800478000000eb001f003700f4
:1004a000e284440054a0b4009905ba00e2844400f8
:1004b00054a0b4009906ba00e284440054a0b400e9
:1004c0000006eb00476fde00fd07b200ae018800ba
:1004d000636ce10003003a000ad801000000eb0061
:1004e0000e003700606ce10008003a00004deb00a0
:1004f0000a05e800020039003420ec000af0a000f0
:100500008b05e900f9ff3e00040037006168e10057
:10051000010032000086eb000b00070019c7ba008b
:100520000e04e0001905ba0003003a000a00e000da
:10053000dbff3a0000000600fe07b200ae028800b2
:100540008a047800f5ff37000cd0a300e20f4d00bd
:100550001c00390089027800354dba000a05e80010
:10056000020039003420ec000af0a0008b05e900fd
:100570000f003200254dba000a05e80002003900dc
:100580003420ec000af0a0008b05e90008003200de
:100590000c00e0000600320015cdba000a05e800a4
:1005a000020039003420ec000af0a0008b05e900bd
:1005b0008984e80054a0b4000b00e000e2ff3a0098
:1005c000000006009902ba00055d78008b05e9007d
:1005d000f7ff3200c82ade00055d78008b05e900d0
:1005e000f3ff32000c00e000f1ff320019ddba0029
:1005f000eeff37000000fa000108a9000080fa00b1
:10060000004006003600f800809fbe00829fbe00ba
:10061000849fbe00869fbe000000fa000068a9000b
:100620008c080700040b07000080fa004f03be008f
:100630004f02be004f01be004f00be003600f90061
:10064000004006003600f800809fbe00829fbe007a
:10065000849fbe00869fbe00889fbe000000fa00f7
:100660000368a9007080800081808000100107006d
:100670000004be0090808000a18080000001be00c8
:1006800000002000a1472400870007000001be00f1
:100690000800be0027000700ea00070070808800fd
:1006a00081808800940207000080fa004f04be0099
:1006b0004f03be004f02be004f01be004f00be0000
:1006c0003600f90000400600809fbe000000fa00de
:1006d00001a8a9000118800020002100010878006d
:1006e00011188000200021001100980021188000be
:1006f00020002100210098003118800020002100f6
:10070000310098004118800020002100410098002d
:1007100010c0b3000af0b7000080fa004f00be001e
:10072000004006000040da000000fe000000050066
:1007300003f0a200889fbe008a9fbe008c1f780035
:10074000180107001f0133006450e1004f00320020
:100750006420e1005200320003826c0007003b007d
:100760000905d0000306d000820f54000c065d007e
:100770000200390002003200890178000306780087
:100780008582550004003d000003fd008103fd004b
:100790008502ea008b854200840f720002003b0054
:1007a00060001000e08018006011b8000005eb0048
:1007b0007a28e1000a00390006007800c75ddd00f4
:1007c000f707b200878075002d0037008281710025
:1007d0000a017800610560008180d1000080d300ab
:1007e0008502e900f9ff3b000604400087844800c9
:1007f00002003b0060041400e0841c000988a30090
:10080000070032008a8171008281710061016400f9
:100810008904d1000884d3008b05e8001700370055
:100820000978a30013003a000b00e0001300340025
:100830008b05e9000804440089844c000a447400d4
:100840000978a3000d003a000b00e0000700340017
:100850008b05e9000804440089844c0001003a003b
:100860000b0020000978a300f7ff32000001eb0025
:1008700002003700828171000a0178008e000700b3
:100880000cf0a70001f0a000d70037006420e100c1
:1008900002003a00838f6c00d70033000801be00cd
:1008a0000200be00d0003700889fbe008a9fbe00b5
:1008b0008c1f7800bb000700c200330003866c0069
:1008c0006450e1002e0032006420e1003300320069
:1008d0006150e1002f0032006120e1003100320060
:1008e00085855500eb07b0000900200008042000b2
:1008f000050037000804440089844c000a003100d8
:100900000603430087834b000001530081815b0095
:10091000f8ff33000203be000800a00008044400f2
:1009200089844c00f6ff3900c639dd00830173006d
:1009300001003200130020008904d1000884d30094
:100940000998a300050032000800a7000300a000da
:100950008904d1000884d3008b05e8008904d10004
:100960000884d3000001eb000281d200520007008e
:1009700001f0a1000cf0a70001f0a0009a003700e0
:100980006420e1009c0032000801be000200be00ad
:10099000f7ff37006120e100970032006000b800e7
:1009a000f3ff37000000200001f82700f0ff3700b8
:1009b00014002000c7003700f4ff2f00c5003700e7
:1009c0000001be00620007000470a70003f0a10050
:1009d0006509b100160032000d0035006828e100fd
:1009e00006003500f0ff2f00f1ff27000300e000b4
:1009f00013003b000100280000000500000040003b
:100a0000818048008502e900fcff3a0008003700b9
:100a1000f88f420002003c008000eb00000005005f
:100a20008100d1000080d3008502e800fcff3a007d
:100a30000300e00002003b0060001000e0801800ae
:100a4000000006000001be00410007000470a7007e
:100a500003f0a10003f8a30013003a006509b100f8
:100a600010003200090035006928e100020035005d
:100a700001002800000005000000400081804800bf
:100a80008502e900fcff3a0000000600f88f4200f2
:100a9000050035008100d1000080d3008502e80008
:100aa000fcff3a00000006008000eb00000005009b
:100ab0006011b800a200370081002000618055005d
:100ac0000b003d000b00200061fe2f000100e10043
:100ad0001d00340082817100610164008904d1002d
:100ae0000884d3000000e800faff3a0071002000fb
:100af0006100640003007000020060000900320021
:100b000061044400e0844c000988a500050032001f
:100b10008b05e8006808e10002003a008904d10072
:100b20000884d300f20f20000258e10005003d00c8
:100b3000c75ddd00f907b200898075000800780004
:100b4000000006000bf827008b007800000005006d
:100b5000c70ade00f107b200f50fb200080032004c
:100b6000e1cf4200020032000170a0002400050025
:100b7000810f7000010032000408050044000500e8
:100b8000810f700002003a00140005008502e900a0
:100b90000000400081c04800fcff3b000170a00045
:100ba000240005000004be00e9ff07000003be00aa
:100bb0000405be000200be00e5ff0700844f75007b
:100bc000000006000200be006450e100050036008f
:100bd0006420e100020036000968a30001003a0029
:100be0000800be000160a0004f0678004f05be005f
:100bf0004f04be0000000600f0ff2f00f1ff2700a9
:100c0000f9ff3700889fbe008a9fbe008c1f7800c6
:100c1000e4ff0700ebff330003866c006450e10043
:100c2000240032006420e100270032006150e1001e
:100c3000220032006120e100210032008b85420059
:100c4000eb07b1000134b800003ab80008044200d4
:100c500089844a00013ab8000030b800888040001a
:100c600009014a0004003300000040008180480070
:100c7000020149008b05e900c909dd00830170000c
:100c80000100320013002000c814de004814dd000b
:100c90004709de001200b200c808de0008847000b8
:100ca00085ff070001f0a1000cf0a70001f0a000f3
:100cb000cdff37006120e100cfff32000801be0008
:100cc0000200be00f7ff37006150e100fcff3a0070
:100cd000c9ff3700889fbe008a9fbe00841f78002e
:100ce000b0ff07004f00780011003300f0ff2f0025
:100cf000838f6c0006003b00040565000a00a70016
:100d00000800370009f0a600100020000800370096
:100d1000820f5400838f5c00030039001000200014
:100d200001003e000000200009f0a7000000ea00da
:100d30004f05be004f04be000000e00000000600aa
:100d4000889fbe008a9fbe0000827000040271006e
:100d500004827100260032000004be000200be00c2
:100d60006011b8006b092000950220000182cf00bd
:100d70000a0039000541b1000082cf0007003900a8
:100d80000541b1000982cf00040039000541b100de
:100d90000882cf00010039000541b1000542520030
:100da000120032000a003b00828171006101640080
:100db0008100d1000080d3008984d3000884d3004f
:100dc0008b05e8000442e800f7ff3a00070037000f
:100dd0000804440089844c000000480081804800d9
:100de0008b05e9000442e900f9ff3a0032ff0700f1
:0c0df0004f05be004f04be0000000600ce
:020000040000fa
:100dfc000600fa00881f78001c0907005d0907002f
:100e0c004b07070031070700c80707000706070054
:100e1c00cc08070064cea80064eea800254ea800fc
:100e2c00010037000000000008090700e14f5000e6
:100e3c00fcff3a000909070000090700000f7800c1
:100e4c009e00780066804000100078008000eb0067
:100e5c0014ff0700323323003305240066ff07001c
:100e6c0002002000035824008cfe0700d2cc2c007a
:100e7c00c304240060ff07001007980021079800a6
:100e8c001e019000ae019000000020008120240083
:100e9c0082fe070002002000030a240021fe070046
:100eac00f0818800018288009e00780068804000f4
:100ebc00100078008000eb00fafe070032332300ac
:100ecc00330524004cff07000200200003582400c7
:100edc0072fe0700d2cc2c00c304240046ff07008e
:100eec0010079800210798001e019000ae01900099
:100efc00000020008120240068fe07000200200072
:100f0c00030a240007fe0700b0818800c181880015
:100f1c009e00780064804000100078008000eb0098
:100f2c00e0fe0700323323003305240032ff0700b4
:100f3c00020020000358240058fe0700d2cc2c00dd
:100f4c00c30424002cff0700100798002107980009
:100f5c001e019000ae0190000000200081202400b2
:100f6c004efe070002002000030a2400edfd0700de
:100f7c0090818800a18188001e80e8001000780014
:100f8c008000eb00c7fe070032332300330524003a
:100f9c0019ff070002002000035824003ffe070041
:100fac00d2cc2c00c304240013ff070010079800b8
:100fbc00210798001e019000ae0190000000200057
:100fcc008120240035fe070002002000030a2400c3
:100fdc00d4fd070070818800818188001e00780094
:100fec00100078008000eb00aefe070032332300c7
:100ffc003305240000ff07000200200003582400e2
:10100c0026fe0700d2cc2c00c3042400fafe0700f5
:10101c0010079800210798001e019000ae01900067
:10102c0000002000812024001cfe0700020020008c
:10103c00030a2400bbfd0700d0818800e1818800f1
:10104c00f08180000182800018c0b30002002000f3
:10105c00031f240053fe07000000e00001003400d1
:10106c000044eb000804e0000200320064cea8004b
:10107c000100370064cea90090818000a18180001e
:10108c0018c0b30002002000031f240045fe070017
:10109c000000e000010034000044eb000804e00014
:1010ac000200320064eea8000100370064eea900d3
:1010bc00d0818000e181800018c0b30002002000c4
:1010cc00031f240037fe07000000e000010034007d
:1010dc000044eb000804e00002003200254ea8009a
:1010ec0051ff3700254ea9004fff37000000fa00d2
:1010fc001ad0bf000080fb00cf80de0092002000e1
:10110c0003002000820f5000838f580051003e00d6
:10111c000006010009003700120037001b003700e1
:10112c0025003700260037002f003700300037002d
:10113c00390037003a003700440037000e30ef001a
:10114c001030ef000001eb006000b800ac050700a8
:10115c00120020006000b800a905070010c0b30001
:10116c001af0b7007280800083808000803e2000df
:10117c0001002000800f5100818f5900380036008b
:10118c0020c0b3001af0b700360037000001eb00a6
:10119c0000002000811c240099050700120020008b
:1011ac0000002000811c24009505070030c0b3000e
:1011bc001af0b7002b0037002c000700290037006d
:1011cc000001eb0000002000811c24008c050700ae
:1011dc00120020006000b8008905070050c0b30061
:1011ec001af0b7001f003700200007001d00370061
:1011fc000001eb006000b800810507001200200020
:10120c0000002000811c24007d05070070c0b30085
:10121c001af0b70013003700140007001100370054
:10122c000001eb00000020000117240074050700ea
:10123c00120020000000200001172c007005070090
:10124c0090c0b3001af0b700060037000700070083
:10125c00040037001a70ef00000000000100370096
:10126c00000000000080fa00000006000600fa00f2
:10127c00881f78000040eb00004f78000000200031
:10128c0041202400100798002107980070818000ed
:10129c008181800018c0b3001e019000ae01900047
:1012ac00c0fd07000000e000010035000044eb0029
:1012bc000804e0002c00320090818000a1818000a5
:1012cc0018c0b3001e019000ae019000b7fd0700de
:1012dc000000e00001003c000044eb000804e000ca
:1012ec0021003200b0818000c181800018c0b300a1
:1012fc001e019000ae019000acfd07000000e00064
:10130c0001003c000044eb000804e0001600320031
:10131c00d0818000e181800018c0b3001e019000d4
:10132c00ae019000a1fd07000000e00001003c00b0
:10133c000044eb000804e0000b003200f081800058
:10134c000182800018c0b3001e019000ae01900015
:10135c0096fd07000000e00001003c000044eb009b
:10136c000804e0004a013a0070818000818180000d
:10137c0018c0b3001e019000ae01900089fd07005b
:10138c000000e000010035000044eb000804e00020
:10139c002c00320090818000a181800018c0b30025
:1013ac001e019000ae0190007efd07000000e000e1
:1013bc00010035000044eb000804e000210032007d
:1013cc00b0818000c181800018c0b3001e01900064
:1013dc00ae01900075fd07000000e00001003c002c
:1013ec000044eb000804e00016003200d0818000bd
:1013fc00e181800018c0b3001e019000ae01900086
:10140c006afd07000000e00001003c000044eb0016
:10141c000804e0000b003200f081800001828000a3
:10142c0018c0b3001e019000ae0190005ffd0700d4
:10143c000000e00001003c000044eb000804e00068
:10144c0013013a00708180008181800018c0b300c4
:10145c001e019000ae01900054fd07000000e0005a
:10146c0001003c000044eb000804e0002c003200ba
:10147c0090818000a181800018c0b3001e019000f3
:10148c00ae01900049fd07000000e00001003c00a7
:10149c000044eb000804e00021003200b081800021
:1014ac00c181800018c0b3001e019000ae019000f5
:1014bc003efd07000000e00001003c000044eb0092
:1014cc000804e00016003200d0818000e181800029
:1014dc0018c0b3001e019000ae01900031fd070052
:1014ec000000e000010035000044eb000804e000bf
:1014fc000b003200f08180000182800018c0b30024
:10150c001e019000ae01900028fd07000000e000d5
:10151c0001003c000044eb000804e000dc003a0051
:10152c00708180008181800018c0b3001e01900082
:10153c00ae0190001dfd07000000e00001003c0022
:10154c000044eb000804e0002c0032009081800085
:10155c00a181800018c0b3001e019000ae01900064
:10156c0010fd07000000e000010035000044eb0016
:10157c000804e00021003200b0818000c1818000ad
:10158c0018c0b3001e019000ae01900007fd0700cb
:10159c000000e00001003c000044eb000804e00007
:1015ac0016003200d0818000e181800018c0b300a9
:1015bc001e019000ae019000fafc07000000e00054
:1015cc00010035000044eb000804e0000b00320081
:1015dc00f08180000182800018c0b3001e019000d1
:1015ec00ae019000f1fc07000000e00001003c009f
:1015fc000044eb000804e000a5003a007081800074
:10160c008181800018c0b3001e019000ae019000d3
:10161c00e4fc07000000e000010035000044eb0092
:10162c000804e0002c00320090818000a181800031
:10163c0018c0b3001e019000ae019000dbfc070047
:10164c000000e00001003c000044eb000804e00056
:10165c0021003200b0818000c181800018c0b3002d
:10166c001e019000ae019000d0fc07000000e000cd
:10167c0001003c000044eb000804e00016003200be
:10168c00d0818000e181800018c0b3001e01900061
:10169c00ae019000c3fc07000000e0000100350023
:1016ac000044eb000804e0000b003200f0818000e5
:1016bc000182800018c0b3001e019000ae019000a2
:1016cc00bafc07000000e00001003c000044eb0005
:1016dc000804e0006e003a00708180008181800077
:1016ec0018c0b3001e019000ae019000adfc0700c5
:1016fc000000e000010035000044eb000804e000ad
:10170c002c00320090818000a181800018c0b300b1
:10171c001e019000ae019000a2fc07000000e0004a
:10172c00010035000044eb000804e0002100320009
:10173c00b0818000c181800018c0b3001e019000f0
:10174c00ae01900099fc07000000e00001003c0095
:10175c000044eb000804e00016003200d081800049
:10176c00e181800018c0b3001e019000ae01900012
:10177c008cfc07000000e000010035000044eb0089
:10178c000804e0000b003200f08180000182800030
:10179c0018c0b3001e019000ae01900083fc07003e
:1017ac000000e00001003c000044eb000804e000f5
:1017bc0037003a00708180008181800018c0b3002e
:1017cc001e019000ae01900076fc07000000e000c6
:1017dc00010035000044eb000804e0002f0032004b
:1017ec0090818000a181800018c0b3001e01900080
:1017fc00ae0190006bfc07000000e000010035001a
:10180c000044eb000804e00024003200b0818000aa
:10181c00c181800018c0b3001e019000ae01900081
:10182c0060fc07000000e000010035000044eb0004
:10183c000804e00019003200d0818000e1818000b2
:10184c0018c0b3001e019000ae01900055fc0700bb
:10185c000000e000010035000044eb000804e0004b
:10186c000e003200f08180000182800018c0b300ad
:10187c001e019000ae0190004cfc07000000e0003f
:10188c0001003c000044eb000804e00003003200bf
:10189c0020c0b300004f78004103370070818000f6
:1018ac008181800018c0b3001e019000ae01900031
:1018bc003efc07000000e00001003c000044eb008f
:1018cc000804e0002c00320090818000a18180008f
:1018dc0018c0b3001e019000ae01900033fc07004d
:1018ec000000e00001003c000044eb000804e000b4
:1018fc0021003200b0818000c181800018c0b3008b
:10190c001e019000ae01900028fc07000000e000d2
:10191c0001003c000044eb000804e000160032001b
:10192c00d0818000e181800018c0b3001e019000be
:10193c00ae0190001dfc07000000e00001003c001f
:10194c000044eb000804e0000b003200f081800042
:10195c000182800018c0b3001e019000ae019000ff
:10196c0010fc07000000e000010035000044eb0013
:10197c000804e0004a013a007081800081818000f7
:10198c0018c0b3001e019000ae01900007fc0700c8
:10199c000000e00001003c000044eb000804e00003
:1019ac002c00320090818000a181800018c0b3000f
:1019bc001e019000ae019000fcfb07000000e0004f
:1019cc0001003c000044eb000804e0002100320060
:1019dc00b0818000c181800018c0b3001e0190004e
:1019ec00ae019000effb07000000e00001003500a5
:1019fc000044eb000804e00016003200d0818000a7
:101a0c00e181800018c0b3001e019000ae0190006f
:101a1c00e6fb07000000e00001003c000044eb0086
:101a2c000804e0000b003200f0818000018280008d
:101a3c0018c0b3001e019000ae019000dbfb070044
:101a4c000000e00001003c000044eb000804e00052
:101a5c0013013a00708180008181800018c0b300ae
:101a6c001e019000ae019000d0fb07000000e000ca
:101a7c0001003c000044eb000804e0002c003200a4
:101a8c0090818000a181800018c0b3001e019000dd
:101a9c00ae019000c5fb07000000e00001003c0017
:101aac000044eb000804e00021003200b08180000b
:101abc00c181800018c0b3001e019000ae019000df
:101acc00b8fb07000000e000010035000044eb000b
:101adc000804e00016003200d0818000e181800013
:101aec0018c0b3001e019000ae019000affb0700c0
:101afc000000e00001003c000044eb000804e000a2
:101b0c000b003200f08180000182800018c0b3000d
:101b1c001e019000ae019000a2fb07000000e00047
:101b2c00010035000044eb000804e000dc003a0042
:101b3c00708180008181800018c0b3001e0190006c
:101b4c00ae01900099fb07000000e00001003c0092
:101b5c000044eb000804e0002c003200908180006f
:101b6c00a181800018c0b3001e019000ae0190004e
:101b7c008cfb07000000e000010035000044eb0086
:101b8c000804e00021003200b0818000c181800097
:101b9c0018c0b3001e019000ae01900083fb07003b
:101bac000000e00001003c000044eb000804e000f1
:101bbc0016003200d0818000e181800018c0b30093
:101bcc001e019000ae01900078fb07000000e000c1
:101bdc0001003c000044eb000804e0000b00320064
:101bec00f08180000182800018c0b3001e019000bb
:101bfc00ae0190006bfb07000000e0000100350017
:101c0c000044eb000804e000a5003a00708180005d
:101c1c008181800018c0b3001e019000ae019000bd
:101c2c0062fb07000000e00001003c000044eb00f8
:101c3c000804e0002c00320090818000a18180001b
:101c4c0018c0b3001e019000ae01900055fb0700b8
:101c5c000000e000010035000044eb000804e00047
:101c6c0021003200b0818000c181800018c0b30017
:101c7c001e019000ae0190004afb07000000e0003e
:101c8c00010035000044eb000804e00016003200af
:101c9c00d0818000e181800018c0b3001e0190004b
:101cac00ae01900041fb07000000e00001003c0089
:101cbc000044eb000804e0000b003200f0818000cf
:101ccc000182800018c0b3001e019000ae0190008c
:101cdc0036fb07000000e00001003c000044eb0074
:101cec000804e0006e003a00708180008181800061
:101cfc0018c0b3001e019000ae0190002bfb070032
:101d0c000000e00001003c000044eb000804e0008f
:101d1c002c00320090818000a181800018c0b3009b
:101d2c001e019000ae0190001efb07000000e000b9
:101d3c00010035000044eb000804e00021003200f3
:101d4c00b0818000c181800018c0b3001e019000da
:101d5c00ae01900013fb07000000e000010035000d
:101d6c000044eb000804e00016003200d081800033
:101d7c00e181800018c0b3001e019000ae019000fc
:101d8c000afb07000000e00001003c000044eb00ef
:101d9c000804e0000b003200f0818000018280001a
:101dac0018c0b3001e019000ae019000fdfa0700b0
:101dbc000000e000010035000044eb000804e000e6
:101dcc0037003a00708180008181800018c0b30018
:101ddc001e019000ae019000f2fa07000000e00036
:101dec00010035000044eb000804e0002f00320035
:101dfc0090818000a181800018c0b3001e0190006a
:101e0c00ae019000e7fa07000000e0000100350089
:101e1c000044eb000804e00024003200b081800094
:101e2c00c181800018c0b3001e019000ae0190006b
:101e3c00dcfa07000000e000010035000044eb0074
:101e4c000804e00019003200d0818000e18180009c
:101e5c0018c0b3001e019000ae019000d3fa070029
:101e6c000000e00001003c000044eb000804e0002e
:101e7c000e003200f08180000182800018c0b30097
:101e8c001e019000ae019000c6fa07000000e000b1
:101e9c00010035000044eb000804e00003003200b0
:101eac0010c0b300004f7800bd0137007081800076
:101ebc008181800018c0b3001e019000ae0190001b
:101ecc00bafa07000000e00001003c000044eb00ff
:101edc000804e0002c00320090818000a181800079
:101eec0018c0b3001e019000ae019000adfa0700bf
:101efc000000e000010035000044eb000804e000a5
:101f0c0021003200b0818000c181800018c0b30074
:101f1c001e019000ae019000a4fa07000000e00042
:101f2c0001003c000044eb000804e0001600320005
:101f3c00d0818000e181800018c0b3001e019000a8
:101f4c00ae01900099fa07000000e00001003c008f
:101f5c000044eb000804e0000b003200f08180002c
:101f6c000182800018c0b3001e019000ae019000e9
:101f7c008efa07000000e00001003c000044eb007a
:101f8c000804e0004a013a007081800081818000e1
:101f9c0018c0b3001e019000ae01900081fa07003a
:101fac000000e000010035000044eb000804e000f4
:101fbc002c00320090818000a181800018c0b300f9
:101fcc001e019000ae01900078fa07000000e000be
:101fdc0001003c000044eb000804e000210032004a
:101fec00b0818000c181800018c0b3001e01900038
:101ffc00ae0190006bfa07000000e0000100350014
:10200c000044eb000804e00016003200d081800090
:10201c00e181800018c0b3001e019000ae01900059
:10202c0062fa07000000e00001003c000044eb00f5
:10203c000804e0000b003200f08180000182800077
:10204c0018c0b3001e019000ae01900057fa0700b3
:10205c000000e00001003c000044eb000804e0003c
:10206c0013013a00708180008181800018c0b30098
:10207c001e019000ae0190004afa07000000e0003b
:10208c00010035000044eb000804e0002c00320095
:10209c0090818000a181800018c0b3001e019000c7
:1020ac00ae0190003ffa07000000e000010035008f
:1020bc000044eb000804e00021003200b0818000f5
:1020cc00c181800018c0b3001e019000ae019000c9
:1020dc0034fa07000000e000010035000044eb007a
:1020ec000804e00016003200d0818000e1818000fd
:1020fc0018c0b3001e019000ae0190002bfa07002f
:10210c000000e00001003c000044eb000804e0008b
:10211c000b003200f08180000182800018c0b300f7
:10212c001e019000ae01900020fa07000000e000b4
:10213c0001003c000044eb000804e000dc003a0025
:10214c00708180008181800018c0b3001e01900056
:10215c00ae01900013fa07000000e000010035000a
:10216c000044eb000804e0002c0032009081800059
:10217c00a181800018c0b3001e019000ae01900038
:10218c0008fa07000000e000010035000044eb00f5
:10219c000804e00021003200b0818000c181800081
:1021ac0018c0b3001e019000ae019000fdf90700ad
:1021bc000000e000010035000044eb000804e000e2
:1021cc0016003200d0818000e181800018c0b3007d
:1021dc001e019000ae019000f2f907000000e00033
:1021ec00010035000044eb000804e0000b00320055
:1021fc00f08180000182800018c0b3001e019000a5
:10220c00ae019000e7f907000000e0000100350086
:10221c000044eb000804e000a5003a007081800047
:10222c008181800018c0b3001e019000ae019000a7
:10223c00dcf907000000e000010035000044eb0071
:10224c000804e0002c00320090818000a181800005
:10225c0018c0b3001e019000ae019000d3f9070026
:10226c000000e00001003c000044eb000804e0002a
:10227c0021003200b0818000c181800018c0b30001
:10228c001e019000ae019000c6f907000000e000ae
:10229c00010035000044eb000804e0001600320099
:1022ac00d0818000e181800018c0b3001e01900035
:1022bc00ae019000bbf907000000e0000100350002
:1022cc000044eb000804e0000b003200f0818000b9
:1022dc000182800018c0b3001e019000ae01900076
:1022ec00b0f907000000e000010035000044eb00ed
:1022fc000804e0006e003a0070818000818180004b
:10230c0018c0b3001e019000ae019000a7f90700a1
:10231c000000e00001003c000044eb000804e00079
:10232c002c00320090818000a181800018c0b30085
:10233c001e019000ae0190009af907000000e00029
:10234c00010035000044eb000804e00021003200dd
:10235c00b0818000c181800018c0b3001e019000c4
:10236c00ae01900091f907000000e00001003c0074
:10237c000044eb000804e00016003200d08180001d
:10238c00e181800018c0b3001e019000ae019000e6
:10239c0084f907000000e000010035000044eb0068
:1023ac000804e0000b003200f08180000182800004
:1023bc0018c0b3001e019000ae01900079f907001f
:1023cc000000e000010035000044eb000804e000d0
:1023dc0037003a00708180008181800018c0b30002
:1023ec001e019000ae01900070f907000000e000a3
:1023fc0001003c000044eb000804e0002f00320018
:10240c0090818000a181800018c0b3001e01900053
:10241c00ae01900065f907000000e00001003c00ef
:10242c000044eb000804e00024003200b08180007e
:10243c00c181800018c0b3001e019000ae01900055
:10244c005af907000000e00001003c000044eb00da
:10245c000804e00019003200d0818000e181800086
:10246c0018c0b3001e019000ae0190004df907009a
:10247c000000e000010035000044eb000804e0001f
:10248c000e003200f08180000182800018c0b30081
:10249c001e019000ae01900042f907000000e00020
:1024ac00010035000044eb000804e000030032009a
:1024bc0030c0b300004f78003900370070818000c5
:1024cc008181800018c0b3001e019000ae01900005
:1024dc0036f907000000e00001003c000044eb006e
:1024ec000804e0002e00320090818000a181800061
:1024fc0018c0b3001e019000ae0190002bf907002c
:10250c000000e00001003c000044eb000804e00087
:10251c0023003200b0818000c181800018c0b3005c
:10252c001e019000ae01900020f907000000e000b1
:10253c0001003c000044eb000804e00018003200ed
:10254c00d0818000e181800018c0b3001e01900092
:10255c00ae01900015f907000000e00001003c00fe
:10256c000044eb000804e0000d003200f081800014
:10257c000182800018c0b3001e019000ae019000d3
:10258c000af907000000e00001003c000044eb00e9
:10259c000804e000020032000040eb00004f78001d
:1025ac001e4078000004e00003003a0020c0b30095
:1025bc001bf0b700110037001e407800e24f5000ae
:1025cc0003003a0040c0b3001bf0b7000b0037000b
:1025dc001e407800e14f500003003a0060c0b30089
:1025ec001bf0b700050037001e407800e34f500089
:1025fc0002003a0080c0b3001bf0b7001bd0bf0034
:10260c008080fb001ad0bf000080fb000000e900b6
:10261c00808f5000020032001bd0bf001af0b700b0
:10262c004f0478000080fa00000006000000fa0059
:10263c001160800080ff2f00008060001060880017
:10264c0000fa20002060880023aca800238ca8008e
:10265c0011618000f03f2f000080600000a0a000fe
:10266c00106188003000200020618800c3aca800f5
:10267c00c38ca80011668000f03f2f000080600022
:10268c0000a0a000106688003000200020668800a2
:10269c0001eca8000080fa00000006000600fa0019
:1026ac00881f7800008fbe00220798002e00900033
:1026bc00e10f500028003a001e0178009e019000a6
:1026cc00128188002381880018c0b3006011b80003
:1026dc001e0078009e009000b4f807000000e00097
:1026ec0001003d000044eb000804e0000d00320046
:1026fc0023cca90023eca80015eea80010818000c3
:10270c002181800002002000032224003af90700f6
:10271c0005020700c8f80700000078003061880047
:10272c003400370023cca80023eca90015cea80058
:10273c0010818000218180000200200003222400ef
:10274c002df90700f8010700bbf80700000078001e
:10275c0030618800270037001e0178009e01900030
:10276c00528188006381880018c0b3006011b800e2
:10277c001e0078009e0090008cf807000000e0001e
:10278c0001003d000044eb000804e0000d003200a5
:10279c00c3cca90024eea800c3eca8005081800093
:1027ac0061818000020020000322240012f907003e
:1027bc00dd010700a0f807000000780030668800f3
:1027cc000c003700c3cca800c3eca90024cea80091
:1027dc0050818000618180000200200003222400cf
:1027ec0005f90700d001070093f8070000007800f6
:1027fc00306688004f0478000080fa000000060064
:10280c000600fa00008fbe00220798002e009000f0
:10281c00e10f500005003a001e0178009e01900067
:10282c00f280880003818800050037001e007800c4
:10283c009e00900001f0a200308188004181880048
:10284c000080fa00000006000000fa00889fbe001d
:10285c00548180006581800030818000418180003e
:10286c0018c0b3000001be000400be004df8070004
:10287c000000e000010035000044eb000804e0001b
:10288c000d00320038818000498180005481800025
:10289c0065818000b0808000c18080000001be0096
:1028ac000400be00a0f707000801be00cc01070021
:1028bc00508188006181880054818000658180008e
:1028cc00308180004181800018c0b3000001be003f
:1028dc000400be0035f807000000e00001003c00d9
:1028ec000044eb000804e0000d0032003881800049
:1028fc00498180005481800065818000b080800017
:10290c00c18080000001be000400be0085f70700f6
:10291c000801be009a01070050818800618188007f
:10292c00508180006181800018c0b3006011b80034
:10293c001ef807000000e00001003c000044eb0022
:10294c000804e00004003200c3cca90024eea80067
:10295c00c3eca80003003700c3eca90024cea800e8
:10296c00c3cca80050818000618180006e010700fb
:10297c0002002000032224009ff807002ef8070015
:10298c00000078003066880014818000258180006a
:10299c00f08080000181800018c0b3000001be00ef
:1029ac000400be00fff707000000e0000100350046
:1029bc000044eb000804e0000d003200f8808000b9
:1029cc00098180001481800025818000b080800006
:1029dc00c18080000001be000400be0052f7070059
:1029ec000801be007e01070010818800218188004b
:1029fc001481800025818000f0808000018180009e
:102a0c0018c0b3000001be000400be00e7f70700c9
:102a1c000000e00001003c000044eb000804e00072
:102a2c000d003200f8808000098180001481800044
:102a3c0025818000b0808000c18080000001be0034
:102a4c000400be0037f707000801be004c01070068
:102a5c0010818800218188001081800021818000f4
:102a6c0018c0b3006011b800d0f707000000e000f8
:102a7c0001003c000044eb000804e00004003200bc
:102a8c0023cca90015eea80023eca8000300370006
:102a9c0023eca90015cea80023cca800108180003f
:102aac002181800020010700020020000322240065
:102abc0051f80700e0f7070000007800306188004b
:102acc004f04be000080fa00000006000000fa006f
:102adc0013e1a90011e1a9001061a8001021a900bf
:102aec0081088000f0fc2f000080600080088800c6
:102afc000a21ef000621ef00202620007008880034
:102b0c0000a02500600888002142800080ff2f0073
:102b1c00008060000000a000204288000108a9008d
:102b2c002108a80011e1a8000080fa0000000600ae
:102b3c000000fa0005e1a9000421a9000000200012
:102b4c00a1372400050007000068a9002068a80030
:102b5c0005e1a8000080fa00000006000400fa005d
:102b6c00881f7800008fbe0021088000f0fc2f0029
:102b7c0000806000200888001e0178009e019000f3
:102b8c000068290081c1240044f7070018c0b30075
:102b9c0002f02f00f377240084f707000000e00018
:102bac0001003c000044eb000804e000540032003b
:102bbc0021088000f0fc2f00008060000040a00085
:102bcc00200888001e0178009e01900000682900f2
:102bdc0081c1240031f707000200200003102400fb
:102bec002ef7070018c0b30002f02f00f377240073
:102bfc006ef707000000e00001003c000044eb0011
:102c0c000804e0003200320021088000f0fc2f00a4
:102c1c00008060000050a000200888001e01780091
:102c2c009e0190000068290081c124001bf7070059
:102c3c00020020000328240018f7070018c0b30076
:102c4c0002f02f00f377240058f707000000e00093
:102c5c0001003c000044eb000804e00010003200ce
:102c6c00210880000003200001007000200888006b
:102c7c001e0178009e0190000068290081c124008b
:102c8c0006f70700020020000338240003f70700b2
:102c9c0048f7070000007800100888002000370073
:102cac001e0178009e0190000068290081c124005b
:102cbc00faf607000200200003282400f7f60700ac
:102ccc003cf707000000780010088800140037005b
:102cdc001e0178009e0190000068290081c124002b
:102cec00eef607000200200003102400ebf60700ac
:102cfc0030f7070000007800100888000800370043
:102d0c001e0178009e0190000068290081c12400fa
:102d1c00e2f6070027f7070000007800100888008b
:102d2c004f0478000080fa00000006000000fa0052
:102d3c001fe1a9001e21a90090808000a1808000c5
:102d4c00050007000368a9002368a8001fe1a8007c
:102d5c000080fa00000006000400fa00881f7800ca
:102d6c00008fbe00f1088000f0fc2f000080600096
:102d7c00f00888001e0178009e0190000068290070
:102d8c0081c12400c5f6070018c0b30002f02f0063
:102d9c00f377240005f707000000e00001003c0079
:102dac000044eb000804e00054003200f1088000fd
:102dbc00f0fc2f00008060000040a000f0088800ac
:102dcc001e0178009e0190000068290081c124003a
:102ddc00b2f607000200200003102400aff6070033
:102dec0018c0b30002f02f00f3772400eff60700b1
:102dfc000000e00001003c000044eb000804e0008f
:102e0c0032003200f1088000f0fc2f0000806000de
:102e1c000050a000f00888001e0178009e01900070
:102e2c000068290081c124009cf6070002002000e4
:102e3c000328240099f6070018c0b30002f02f00f5
:102e4c00f3772400d9f607000000e00001003c00f5
:102e5c000044eb000804e00010003200f108800090
:102e6c000003200001007000f00888001e017800ab
:102e7c009e0190000068290081c1240087f607009c
:102e8c00020020000338240084f60700c9f607006e
:102e9c0000007800d0088800200037001e01780060
:102eac009e0190000068290081c124007bf6070078
:102ebc00020020000328240078f60700bdf6070066
:102ecc0000007800d0088800140037001e0178003c
:102edc009e0190000068290081c124006ff6070054
:102eec0002002000031024006cf60700b1f6070066
:102efc0000007800d0088800080037001e01780018
:102f0c009e0190000068290081c1240063f607002f
:102f1c00a8f6070000007800d00888004f0478005d
:102f2c000080fa00000006000400fa00881f7800f8
:102f3c00008fbe0018c0b3006011b8001e007800ee
:102f4c009e00900099f607000000e00001003d0093
:102f5c000044eb000804e000030032001e0078007f
:102f6c009e009000030037001e0078009e00900029
:102f7c0001f0a2004f0478000080fa000000060067
:102f8c000800fa00881f7800008fbe002207980006
:102f9c003307980018c0b3002e019000be019000ba
:102fac001e0078009e00900080f607000000e000f4
:102fbc0001003c000044eb000804e0000300320078
:102fcc001e0078009e009000020037002e0090003a
:102fdc00be0090004f0478000080fa00000006004c
:102fec000800fa00881f7800008fbe0022079800a6
:102ffc003307980018c0b3002e019000be0190005a
:10300c001e0078009e00900066f607000000e000ad
:10301c00010035000044eb000804e000030032001e
:10302c001e0078009e009000020037002e009000d9
:10303c00be0090004f0478000080fa0000000600eb
:10304c000c00fa00881f7800008fbe002207980041
:10305c0033079800440798005507980018c0b30030
:10306c004e019000de0190001e0078009e00900042
:10307c004ef607000000e00001003c000044eb00ad
:10308c000804e000040032004e019000de019000c4
:10309c00028fbe000e00370018c0b3002e01900046
:1030ac00be0190001e0078009e0090003df60700c7
:1030bc000000e000010035000044eb000804e000d3
:1030cc00030032002e019000be019000028fbe0062
:1030dc001e0078009e0090004f0478000080fa00db
:1030ec00000006000400fa00008fbe00b2fd2000b4
:1030fc00930424001e0078009e009000e7f5070062
:10310c000200200043332400bbf607000080fa00c5
:10311c00000006000400fa00008fbe00b2fd200083
:10312c00930424001e0078009e009000b2f6070065
:10313c000200200043332400d8f507000080fa0079
:10314c00000006000000fa0021e3a9002143a800ba
:10315c0001198000f0cf2f0000806000001988005a
:10316c002043a90001198000000e2000010070000e
:10317c000019880011198000f0ff21000080600008
:10318c00101988002343a80011198000f0cf2f00dc
:10319c0000806000101988001119800030f82f0091
:1031ac00008060000040a000101988002203a900d4
:1031bc002223a90025e3a900f0c0b30024e3b70043
:1031cc0021198000f00f2e008080600000f020009c
:1031dc0001007000201988003303a9002e0ea800ee
:1031ec002f6ea8006f2ea8001e2ea8004feea80070
:1031fc0030c3a8003163a8002e03a8003063a800d8
:10320c0031e3a8004119800000fc2f000080600011
:10321c004019880028e3a90001a8a90021a8a8004a
:10322c0021e3a8000080fa00000006000000fa006c
:10323c002023a8000080fa00000006000000fa001d
:10324c00200021000080fa00000006000000fa00b7
:10325c000ad0bf000080fa00000006000000fa004f
:10326c000a70ef000080fa00000006000000fa006f
:10327c00f0032000303a8800213a8000f0f32f0050
:10328c0000806000203a8800213a800000fe2f0068
:10329c00008060000000a000203a8800120020008e
:1032ac0080072000a1092000337420008049780099
:1032bc008149780082497800103a8000000178003a
:1032cc000200a0006004200071052000237420007f
:1032dc00804978008149780082497800000000001c
:1032ec00113a80000000270080806000000021005f
:1032fc00808f5000faff3a0000000000113a800065
:10330c0000022000008060000000e000fbff3200a3
:08331c000080fa000000060029
:020000040000fa
:103324001a10000002000000800000000c100000d1
:1033340006000000800000001210000004000000dd
:103344008200000000007a00440000001c1000000d
:103354002600000080000000161000000400000099
:10336400820000000000a0004000000000100000e7
:0c3374000c0000008000000000000000c1
:020000040000fa
:103380000000fa000e2eef001e2eef002e2eef0092
:103390003e2eef004e2eef005e2eef006e2eef0061
:1033a000214ea90060cea90060eea90011cea900af
:1033b00011eea90020cea90020eea9000080fa009d
:0433c0000000060003
:020000040000fa
:02000004000af0
:04afe000cfff00009f
:020000040000fa
:02000004000af0
:04afe400ffff00006b
:020000040000fa
:02000004000af0
:04afe8007fff0000e7
:020000040000fa
:02000004000af0
:04afec005fff000003
:020000040000fa
:02000004000af0
:04aff00038ff000026
:020000040000fa
:02000004000af0
:04aff400ffffff005c
:00000001FF
