:020000040000fa
:080000000002040000000000f2
:020000040000fa
:040008009a03000057
:020000040000fa
:04000c009a03000053
:020000040000fa
:040010009a0300004f
:020000040000fa
:040014009a0300004b
:020000040000fa
:040018009a03000047
:020000040000fa
:04001c009a03000043
:020000040000fa
:040020009a0300003f
:020000040000fa
:040024009a0300003b
:020000040000fa
:040028009a03000037
:020000040000fa
:04002c009a03000033
:020000040000fa
:040030009a0300002f
:020000040000fa
:0400340002030000c3
:020000040000fa
:040038009a03000027
:020000040000fa
:04003c009a03000023
:020000040000fa
:040040009a0300001f
:020000040000fa
:040044009a0300001b
:020000040000fa
:04004800fa020000b8
:020000040000fa
:04004c009a03000013
:020000040000fa
:040050009a0300000f
:020000040000fa
:040054009a0300000b
:020000040000fa
:040058009a03000007
:020000040000fa
:04005c006403000039
:020000040000fa
:040060009a030000ff
:020000040000fa
:040064009a030000fb
:020000040000fa
:040068009a030000f7
:020000040000fa
:04006c009a030000f3
:020000040000fa
:040070009a030000ef
:020000040000fa
:040074009a030000eb
:020000040000fa
:040078009a030000e7
:020000040000fa
:04007c009a030000e3
:020000040000fa
:040080009a030000df
:020000040000fa
:040084009a030000db
:020000040000fa
:040088009a030000d7
:020000040000fa
:04008c009a030000d3
:020000040000fa
:040090009a030000cf
:020000040000fa
:040094002203000043
:020000040000fa
:040098009a030000c7
:020000040000fa
:04009c009a030000c3
:020000040000fa
:0400a0009a030000bf
:020000040000fa
:0400a4009a030000bb
:020000040000fa
:0400a8009a030000b7
:020000040000fa
:0400ac009a030000b3
:020000040000fa
:0400b0009a030000af
:020000040000fa
:0400b4009a030000ab
:020000040000fa
:0400b8009a030000a7
:020000040000fa
:0400bc009a030000a3
:020000040000fa
:0400c0009a0300009f
:020000040000fa
:0400c4009a0300009b
:020000040000fa
:0400c8009a03000097
:020000040000fa
:0400cc009a03000093
:020000040000fa
:0400d0009a0300008f
:020000040000fa
:0400d4009a0300008b
:020000040000fa
:0400d8009a03000087
:020000040000fa
:0400dc009a03000083
:020000040000fa
:0400e0009a0300007f
:020000040000fa
:0400e4009a0300007b
:020000040000fa
:0400e8009a03000077
:020000040000fa
:0400ec009a03000073
:020000040000fa
:0400f0009a0300006f
:020000040000fa
:0400f4009a0300006b
:020000040000fa
:0400f8009a03000067
:020000040000fa
:0400fc009a03000063
:020000040000fa
:040100009a0300005e
:020000040000fa
:040104009a0300005a
:020000040000fa
:040108009a03000056
:020000040000fa
:04010c009a03000052
:020000040000fa
:040110009a0300004e
:020000040000fa
:040114009a0300004a
:020000040000fa
:040118009a03000046
:020000040000fa
:04011c009a03000042
:020000040000fa
:040120009a0300003e
:020000040000fa
:040124009a0300003a
:020000040000fa
:040128009a03000036
:020000040000fa
:04012c009a03000032
:020000040000fa
:040130009a0300002e
:020000040000fa
:040134009a0300002a
:020000040000fa
:040138009a03000026
:020000040000fa
:04013c009a03000022
:020000040000fa
:040140009a0300001e
:020000040000fa
:040144009a0300001a
:020000040000fa
:040148009a03000016
:020000040000fa
:04014c009a03000012
:020000040000fa
:040150009a0300000e
:020000040000fa
:040154009a0300000a
:020000040000fa
:040158009a03000006
:020000040000fa
:04015c009a03000002
:020000040000fa
:040160009a030000fe
:020000040000fa
:040164009a030000fa
:020000040000fa
:040168009a030000f6
:020000040000fa
:04016c009a030000f2
:020000040000fa
:040170009a030000ee
:020000040000fa
:040174009a030000ea
:020000040000fa
:040178009a030000e6
:020000040000fa
:04017c009a030000e2
:020000040000fa
:040180009a030000de
:020000040000fa
:040184009a030000da
:020000040000fa
:040188009a030000d6
:020000040000fa
:04018c009a030000d2
:020000040000fa
:040190009a030000ce
:020000040000fa
:040194009a030000ca
:020000040000fa
:040198009a030000c6
:020000040000fa
:04019c009a030000c2
:020000040000fa
:0401a0009a030000be
:020000040000fa
:0401a4009a030000ba
:020000040000fa
:0401a8009a030000b6
:020000040000fa
:0401ac009a030000b2
:020000040000fa
:0401b0009a030000ae
:020000040000fa
:0401b4009a030000aa
:020000040000fa
:0401b8009a030000a6
:020000040000fa
:0401bc009a030000a2
:020000040000fa
:0401c0009a0300009e
:020000040000fa
:0401c4009a0300009a
:020000040000fa
:0401c8009a03000096
:020000040000fa
:0401cc009a03000092
:020000040000fa
:0401d0009a0300008e
:020000040000fa
:0401d4009a0300008a
:020000040000fa
:0401d8009a03000086
:020000040000fa
:0401dc009a03000082
:020000040000fa
:0401e0009a0300007e
:020000040000fa
:0401e4009a0300007a
:020000040000fa
:0401e8009a03000076
:020000040000fa
:0401ec009a03000072
:020000040000fa
:0401f0009a0300006e
:020000040000fa
:0401f4009a0300006a
:020000040000fa
:0401f8009a03000066
:020000040000fa
:0401fc009a03000062
:020000040000fa
:040200009a0300005d
:020000040000fa
:040204009a03000059
:020000040000fa
:040208009a03000055
:020000040000fa
:04020c009a03000051
:020000040000fa
:040210009a0300004d
:020000040000fa
:040214009a03000049
:020000040000fa
:040218009a03000045
:020000040000fa
:04021c009a03000041
:020000040000fa
:040220009a0300003d
:020000040000fa
:040224009a03000039
:020000040000fa
:040228009a03000035
:020000040000fa
:04022c009a03000031
:020000040000fa
:040230009a0300002d
:020000040000fa
:040234009a03000029
:020000040000fa
:040238009a03000025
:020000040000fa
:04023c009a03000021
:020000040000fa
:040240009a0300001d
:020000040000fa
:040244009a03000019
:020000040000fa
:040248009a03000015
:020000040000fa
:04024c009a03000011
:020000040000fa
:040250009a0300000d
:020000040000fa
:040254009a03000009
:020000040000fa
:040258009a03000005
:020000040000fa
:04025c009a03000001
:020000040000fa
:040260009a030000fd
:020000040000fa
:040264009a030000f9
:020000040000fa
:040268009a030000f5
:020000040000fa
:04026c009a030000f1
:020000040000fa
:040270009a030000ed
:020000040000fa
:040274009a030000e9
:020000040000fa
:040278009a030000e5
:020000040000fa
:04027c009a030000e1
:020000040000fa
:040280009a030000dd
:020000040000fa
:100400004f0421000eff2c000e01880000000000a8
:10041000000020000000e000020032000001200087
:100420002002880014000700c40007000000e0005c
:1004300003003a00a054220001002000020037000f
:100440000000200001002000810f70000100320038
:100450000f000700000020000000e0000200320052
:100460000000020000000000e80b02000000000095
:100470000040da000000fe00200020000000e00044
:1004800002003200100020009001880000000600e9
:10049000a1028800800478000000eb001f003700f4
:1004a000e284440054a0b4009905ba00e2844400f8
:1004b00054a0b4009906ba00e284440054a0b400e9
:1004c0000006eb00476fde00fd07b200ae018800ba
:1004d000636ce10003003a000ad801000000eb0061
:1004e0000e003700606ce10008003a00004deb00a0
:1004f0000a05e800020039003420ec000af0a000f0
:100500008b05e900f9ff3e00040037006168e10057
:10051000010032000086eb000b00070019c7ba008b
:100520000e04e0001905ba0003003a000a00e000da
:10053000dbff3a0000000600fe07b200ae028800b2
:100540008a047800f5ff37000cd0a300e20f4d00bd
:100550001c003b0089027800354dba000a05e8000e
:10056000020039003420ec000af0a0008b05e900fd
:100570000f003200254dba000a05e80002003900dc
:100580003420ec000af0a0008b05e90008003200de
:100590000c00e0000600320015cdba000a05e800a4
:1005a000020039003420ec000af0a0008b05e900bd
:1005b0008984e80054a0b4000b00e000e2ff3a0098
:1005c000000006009902ba00055d78008b05e9007d
:1005d000f7ff3200c82ade00055d78008b05e900d0
:1005e000f3ff32000c00e000f1ff320019ddba0029
:1005f000eeff37000000fa000108a9000080fa00b1
:10060000004006003600f800809fbe00829fbe00ba
:10061000849fbe00869fbe000000fa000068a9000b
:10062000620e0700e01007000080fa004f03be00d2
:100630004f02be004f01be004f00be003600f90061
:10064000004006003600f800809fbe00829fbe007a
:10065000849fbe00869fbe00889fbe000000fa00f7
:100660000368a9007080800081808000740007000a
:100670000004be0090808000a18080000001be00c8
:1006800000002000a1472400720107000001be0005
:100690000800be008a0007004e0007007080880036
:1006a000818088000e0507000080fa004f04be001c
:1006b0004f03be004f02be004f01be004f00be0000
:1006c0003600f90000400600809fbe000000fa00de
:1006d00001a8a9000118800020002100010878006d
:1006e00011188000200021000080e8000108780037
:1006f00021188000200021006400400001087800db
:1007000031188000200021006600400001087800b8
:100710004118800020002100680040000108780096
:1007200010c0b3000af0b7000080fa004f00be000e
:10073000004006000040da000000fe000000050056
:1007400014002000aa033700f4ff2f00a80337008d
:100750000001be003c0007000470a70003f0a100e8
:100760006509b100160032000d0035006828e1006f
:1007700006003500f0ff2f00f1ff27000300e00026
:1007800013003b00010028000000050000004000ad
:10079000818048008502e900fcff3a00080037002c
:1007a000f88f420002003c008000eb0000000500d2
:1007b0008100d1000080d3008502e800fcff3a00f0
:1007c0000300e00002003b0060001000e080180021
:1007d000000006000001be001b0007000470a70017
:1007e00003f0a10003f8a30013003a006509b1006b
:1007f00010003200090035006928e10002003500d0
:100800000100280000000500000040008180480031
:100810008502e900fcff3a0000000600f88f420064
:10082000050035008100d1000080d3008502e8007a
:10083000fcff3a00000006008000eb00000005000d
:100840006011b80085033700c70ade00f107b20067
:10085000f50fb20008003200e1cf42000200320082
:100860000170a00024000500810f7000010032001b
:100870000408050044000500810f700002003a00e2
:10088000140005008502e9000000400081c0480016
:10089000fcff3b000170a0002400050007f82700c2
:1008a000078361000638e10004003a00f7072000e2
:1008b000878361008703710001003a0003f0a20002
:1008c000889fbe008a9fbe008c9fbe00470ade0044
:1008d0000480a100c71ade000580a10007002800df
:1008e0000785600087856100f70f20000720e10081
:1008f0009e0032000728e1009c00320001067800cb
:100900000400e000b4003200f70720008780600098
:100910000170a0000500e000c0003200f7072000d1
:10092000878161000370a000050652000f003a00a5
:100930000b50e1000b0032000308e10002003a0016
:100940000200e1007e00320002045000838458005f
:10095000040031000001fd008101fd008402fd0062
:100960008a05fd006044b800210037000520e10041
:1009700005003d000001fd008101fd008402fd0035
:100980008a05fd00050652007a60e1000500350089
:100990000170a1004722dd00848070008a80700011
:1009a000630037006044b800ef02660007ff2f00c5
:1009b000070666000500e00006003400f083120020
:1009c0008714dd000511de00071bdd000601710044
:1009d0008519de007060e10005003500090478002b
:1009e00082047800030178008001eb007006560055
:1009f0000b50e10003003a000200400083804800f1
:100a00000400370060041400e0841c000200580059
:100a1000838058000188a300060032008100d100c5
:100a20000080d3008984d3000884d3000402e80046
:100a3000270037000178a30025003a000100e000fc
:100a4000030032008186cf00698656000a00370015
:100a50008c0020000000e00004003a00090078004b
:100a6000880478000004eb00700252008086cf00fa
:100a70000d0646000c06e9007060e1000600350036
:100a80008000780009007800880478000004eb00fa
:100a900070065600700252000c00e0000c0034009a
:100aa0008c08dd00f00316000703de00868070006e
:100ab0000c00dd00074bde00060070008c4cdd00f2
:100ac0000743de00868474000c44dd000c025200f3
:100ad0006120e1002000350061016000070028006e
:100ae00087816400f7ff2700878364000703740091
:100af0000300e000060032008203730004003200ad
:100b00000000e800e08048000188a3000e003a00e1
:100b1000f70f20000720e1004a003d000170a1000e
:100b20004722dd00810072008a8070000000be0054
:100b30004f06be004f05be004f04be000000060079
:100b40006000b800faff37008100d1000080d300b8
:100b50000402e800eeff3700040178008901740008
:100b6000a10107008a807000f1ff3700f70107003c
:100b7000070278000001fd008101fd00f30107007c
:100b800087027800850372000778a3000400320012
:100b90000001fd008101fd0006020700e4ff3700af
:100ba000850362000768a300080032000b50e100d3
:100bb00003003200f0ff2f00f1ff2700dcff3700b9
:100bc0000001fd008101fd00d9ff37000468a3008a
:100bd000d7ff3200faff3700f8ff27008883600054
:100be0000b003a000000e00009003a0083036400b3
:100bf00082837300020032000200be00ccff370087
:100c00000b50e100ceff3a000200be00c8ff3700e3
:100c100014002000810064003eff3700f8ff270029
:100c20008883610004003a000200e00002003a00fc
:100c30008c007800beff370015002000830164009f
:100c400039ff370001f827000000200081007500ff
:100c5000b7ff3700889fbe008a9fbe008c9fbe00f2
:100c60001b0020000202be00058668000600280066
:100c7000060666004709de00f20fb200820032006d
:100c80000243e80080003200c729de00f30fb20003
:100c90007d0032000343e8007b003200f107b20020
:100ca0000170a000f507b2000570a000c708dd00c4
:100cb0004903de00868070004700dd00c72add00a2
:100cc0004923de00868272004722dd0003055100c1
:100cd00004035000858358000300310000004000e9
:100ce000818048000a05e9008c1f78008a9fbe00b9
:100cf00004005000858058000402420085824a00aa
:100d000000004000818048000005eb000004be00a8
:100d10006033b8000406be000d48e1005600310003
:100d2000110009004dccd8000c01b8000d02b8002c
:100d30008481410060824a008283530003045c0086
:100d400084845c0060055d000a00e00025003a0034
:100d5000800578000d40e1004900310088007800ee
:100d600007007800110009004d88d8000c01b80078
:100d70000d02b8008481410060824a0060031100c6
:100d800083835b0004045c00e0845c000900e000f5
:100d900021003a004f01be000300e0002b003200aa
:100da000e3016000070673008c81710001003200ce
:100db000640070004200de004e5edd000c0070003a
:100dc000c258de0001e0a00083010700cf017800d7
:100dd000818071004f06be004f05be004f04be006b
:100de000000006008c8343000d044c00e0844c009e
:100df00060054d000000e9000a00e000d4ff320069
:100e00008c8343000d044c00e0844c0060054d00d1
:100e10000000e900ceff37000c0343008d834b0038
:100e200060044c00e0844c000000e9000900e00090
:100e3000d8ff32000c0343008d834b0060044c004c
:100e4000e0844c000000e900d2ff37004200de00e1
:100e50004e5edd000c007000c258de0001e0a00014
:100e6000cf0178000300e000daff320060001000dc
:100e7000e0801800d7ff3700f0ff2f00aaff3700ef
:100e8000f0ff2f00b9ff37000404be002f01070058
:100e9000870678000004fd008104fd002b01070097
:100ea000078366000678a300030032000960a700ec
:100eb0000800be002c0037000d78a30002003200ad
:100ec0000800be00280037000778a30026003a007b
:100ed00001f0a10009f0a1000668a30003003200a0
:100ee000f1ff2700f0ff2f00baff37000d68a300c5
:100ef000030032000800be008c807000b5ff370090
:100f00000768a30007003a000648a3000300320068
:100f1000f1ff2700f0ff2f00aeff37000d48a300c0
:100f2000030032006000b8008c807000a9ff370019
:100f30000748a3000400320001f827000000200049
:100f40008c807000a3ff3700760107000004fd00cd
:100f50008104fd0002057800720107000802be004e
:100f60008a01780059ff37000160a00012022000ba
:100f7000e280880097ff37000100e0001200320095
:100f80000500e00010003200889fbe008a9fbe006e
:100f90008c9fbe000006eb0001f8a30003003200a6
:100fa00060001000e08018000cf0a00005f8a3001d
:100fb0000300320060021200e0821a000cf0a2006e
:100fc0008005eb0041ff37006000b800020005001b
:100fd000038368000700280007036300470ade0058
:100fe0000480a100c71ade000580a100f70f2000d1
:100ff0000720e100420032000728e10040003200f3
:10100000889fbe008a9fbe008c1f7800f107b20047
:10101000f307b2000400e000640032000170a00099
:101020000500e000680032000370a0008505420062
:10103000eb07b1000204b8000302b8008484440046
:1010400060854a00020ab800848444000a854a0088
:10105000030ab80004054500040033000804d0006a
:101060008984d2000a85d2008b05e9006158e1002d
:101070003d00350002102000090161000308200036
:1010800089816100f7072000878364000886730068
:10109000c84cde00c853dd00878474004855de006c
:1010a0000300e000060032008203760004003200f4
:1010b0008904e80060054d000a88a3000c003a008e
:1010c000f70f20000758e10044003d000a70a1001e
:1010d000c75ddd000a8575008a007300090078008d
:1010e0004f0678004f05be004f04be00000006000a
:1010f0000a05d1008984d3008b05e800f0ff370092
:10110000881f780006047800900007000702780026
:101110000001fd008101fd008c00070087027800be
:10112000850372000778a300050032000001fd006e
:101130008101fd009f0007004f04780000000600b9
:10114000850372000748a30003003200f0ff2f0060
:10115000f1ff2700f8ff37000000200001f827000a
:1011600088807000f4ff3700880178004848dd006f
:10117000808171004848de00c850dd000100700029
:10118000c850de00060478000b0178001600070046
:1011900088807000d2ff37000500e00005003200b3
:1011a000170020003a0007009dff37008103700000
:1011b000f9ff3a00860078004f0678004f05be0020
:1011c0004f04be000000050083037100f9ff3200e8
:1011d000270020002e00070094ff370001f82700a9
:1011e00086807000f4ff37000100e0002600320026
:1011f000610111007810e10023003c006022b8007a
:101200007010e100040035008002780001007800d1
:101210008000eb00700151000200e0000900340082
:1012200070031100062add00822ade008603dd003d
:10123000878272000200de00860bdd00070070006e
:101240008208de0084817100f4ff270004826200be
:1012500084817100040028008482620061026000c1
:1012600005f0a600000006000482710007003200ad
:101270000000e800e0804800000006000002be0018
:101280006000b800efff37006000b8000000060003
:10129000889fbe000004eb006138e10016003a00b0
:1012a0000100e00008003a00c800de004800dd0050
:1012b000880020000100e00003003a00c800de00c2
:1012c0004800dd00680444008184cf00e9845400b4
:1012d000060034008908dd00f08314008703de0077
:1012e000878070000900dd000904440061021400d9
:1012f0004f04be00000006000300e00008003a00b2
:10130000c811de004811dd00880020000300e00065
:1013100003003a00c811de004811dd0068044400f3
:101320008384cf00e9845400060034008919dd006d
:10133000f08314008713de00878171000911dd003e
:1013400009044400e1021400e9ff370027002000ef
:1013500001f0a70017002000470bde00f60fb200d7
:10136000040032000643e8000a0032004702b300de
:101370000000060001037800f607b20006037000c3
:1013800002003a000703b300000006008702b30022
:101390000000060001037800f607b20006037000a3
:1013a000020032000770a000000006000760a000e5
:1013b000000006000478a300040032000578a300b2
:1013c000030032000168a30001003a000200be00e1
:1013d0000160a000000006008101700027003200bb
:1013e0008002eb0001f8a30003003200600010004f
:1013f000e080180015002000f407200002024200df
:1014000020003400f703200087036000060420005a
:101410000003630002082000000161004700de00b5
:10142000c909dd0000807100c708de000600e00089
:101430000800320087037100060032001000b0007f
:101440000180b0000188a30002003200c108de0064
:101450000402e800f107b200f30f20000320e100ce
:1014600003003d004722dd008100720029003700a3
:1014700001f827000000eb00260037006000b800ec
:1014800000000600680212007f20e1000200340024
:101490006000b8001f0037006011b8007020e10044
:1014a0000400350080017800010078008000eb0026
:1014b000700252000400e00009003400f003120042
:1014c0000719dd008419de000703dd008681710045
:1014d0000400de00070bdd00060070008408de005b
:1014e000f7ff27008383630087037100060028004d
:1014f00003036300070032000700e00003003a0026
:101500006101600002817300020032001000b0002f
:101510000180b0000500a6000000060001f0a00058
:10152000000006004f0ade004709de00f107b200a6
:10153000f20fb2000b003200f207b1000170a00000
:10154000c708dd00c901de00838070004700dd00b0
:101550000400a6000000060060001000e0801800f3
:1015600000000600810f700001003a000000060034
:101570008182cf000500e00010003e008082cf0095
:10158000ee8242007028e1000400390007003e00ae
:10159000800078000000eb000e003700708312001e
:1015a0008600de000500dd000a003700708352006f
:1015b0008600dd000000eb0006003700e2825200ea
:1015c0008508dd00708312000603de00868070004f
:1015d0000500dd007507b0000501ea000400a60063
:1015e0000000060060001000e08018000000060007
:1015f000889fbe008a9fbe00841f78006c00070091
:101600004f00780011003300f0ff2f00838f6c0033
:1016100006003b00040565000a00a700080037002b
:1016200009f0a6001000200008003700820f5400c7
:10163000838f5c00030039001000200001003e0091
:101640000000200009f0a7000000ea004f05be00de
:101650004f04be000000e00000000600889fbe00ae
:101660008a9fbe0000827000040271000482710033
:10167000260032000004be000200be006011b80067
:101680006b092000950220000182cf000a0039007a
:101690000541b1000082cf00070039000541b100cb
:1016a0000982cf00040039000541b1000882cf0053
:1016b000010039000541b10005425200120032001c
:1016c0000a003b0082817100610164008100d10049
:1016d0000080d3008984d3000884d3008b05e80000
:1016e0000442e800f7ff3a0007003700080444000e
:1016f00089844c0000004800818048008b05e90087
:101700000442e900f9ff3a00030007004f05be005c
:101710004f04be00000006008100200061805500db
:101720000b003d000b00200061fe2f000100e100d6
:101730001d00340082817100610164008904d100c0
:101740000884d3000000e800faff3a00710020008e
:1017500061006400030070000200600009003200b4
:1017600061044400e0844c000988a50005003200b3
:101770008b05e8006808e10002003a008904d10006
:101780000884d300f20f20000258e10005003d005c
:10179000c75ddd00f907b200898075000800780098
:1017a000000006000bf827008b0078000000050001
:1017b0000004be0024fc07000003be000405be00b8
:1017c0000200be0020fc0700844f750000000600e8
:020000040000fa
:1017d0000600fa00881f7800830c0700c70c07007a
:1017e000ac0a0700920a0700290b070064090700ea
:1017f000330c070064cea80064eea800254ea800b4
:1018000001003700000000006f0c0700e14f50009e
:10181000fcff3a00700c0700670c0700000f78000f
:101820009e00780066804000100078008000eb0089
:1018300003fc07003233230033052400e4fd0700d6
:10184000020020000358240002fd0700d2cc2c0027
:10185000c3042400defd07000e81e8000089be00fd
:101860000e80e80010017800900190000000200038
:1018700081202400f7fc070002002000030a240056
:1018800006fc070000828800118288009e00780014
:1018900068804000100078008000eb00e8fb070043
:1018a0003233230033052400c9fd07000200200065
:1018b00003582400e7fc0700d2cc2c00c30424000a
:1018c000c3fd07000e81e8000089be000e80e8001d
:1018d0001001780090019000000020008120240079
:1018e000dcfc070002002000030a2400ebfb0700d9
:1018f000c0818800d18188009e007800648040000b
:10190000100078008000eb00cdfb0700323323008d
:1019100033052400aefd0700020020000358240018
:10192000ccfc0700d2cc2c00c3042400a8fd070087
:101930000e81e8000089be000e80e80010017800ea
:10194000900190000000200081202400c1fc0700cd
:1019500002002000030a2400d0fb0700a0818800b9
:10196000b18188001e80e800100078008000eb0044
:10197000b3fb0700323323003305240094fd070036
:101980000200200003582400b2fc0700d2cc2c0037
:10199000c30424008efd07000e81e8000089be000c
:1019a0000e80e800100178009001900000002000f7
:1019b00081202400a7fc070002002000030a240065
:1019c000b6fb070080818800918188001e007800a6
:1019d000100078008000eb0099fb070032332300f1
:1019e000330524007afd070002002000035824007c
:1019f00098fc0700d2cc2c00c304240074fd07001f
:101a00000e81e8000089be000e80e8001001780019
:101a10009001900000002000812024008dfc070030
:101a200002002000030a24009cfb0700e0818800dc
:101a3000f1818800008280001182800018c0b3000c
:101a400002002000031f24003dfb07000000e0000f
:101a5000010034000044eb000804e0000200320002
:101a600064cea8000100370064cea900a0818000e8
:101a7000b181800018c0b30002002000031f2400c1
:101a80002ffb07000000e000010034000044eb00e1
:101a90000804e0000200320064eea80001003700f4
:101aa00064eea900e0818000f181800018c0b300dd
:101ab00002002000031f240021fb07000000e000bb
:101ac000010034000044eb000804e0000200320092
:101ad000254ea8004cff3700254ea9004aff3700cd
:101ae0000000fa001ad0bf000080fb00cf80de00ab
:101af000b200200003002000820f5000838f5800a6
:101b000060003e00000601000b00370014003700a3
:101b10001d0037002700370028003700310037004c
:101b2000320037003b0037003c00370046003700ea
:101b300047003700510037000e30ef001030ef0043
:101b40000001eb006000b80004090700120020004b
:101b50006000b8000109070010c0b3001af0b70018
:101b60007280800083808000803e20000100200081
:101b7000800f5100818f59004500360020c0b3000e
:101b80001af0b700430037000001eb00000020000e
:101b9000811c2400f1080700120020000000200032
:101ba000811c2400ed08070030c0b3001af0b70014
:101bb0003800370039000700360037000001eb001d
:101bc00000002000811c2400e4080700120020000f
:101bd0006000b800e108070050c0b3001af0b70079
:101be0002c0037002d0007002a0037000001eb0011
:101bf0006000b800d9080700120020000000200093
:101c0000811c2400d508070070c0b3001af0b7008b
:101c100020003700210007001e0037000001eb0004
:101c20000000200001172400cc080700120020004b
:101c30000000200001172c00c808070090c0b30066
:101c40001af0b70013003700140007001100370026
:101c50000001eb000000200001172c00bf08070066
:101c6000120020000000200001172400bb0807001c
:101c7000b0c0b3001af0b700060037000700070035
:101c8000040037001a70ef00000000000100370068
:101c9000000000000080fa00000006000600fa00c4
:101ca000881f78000040eb00004f78000000200003
:101cb000c12024000e81e8000089be0080818000e0
:101cc0009181800018c0b3000e81e800920190005d
:101cd000120178009afa07000000e00001003500c8
:101ce0000044eb000804e00030003200a0818000d6
:101cf000b181800018c0b3000e81e800920190000d
:101d00001201780090fa07000000e00001003c009a
:101d10000044eb000804e00024003200c081800091
:101d2000d181800018c0b3000e81e80092019000bc
:101d30001201780084fa07000000e00001003c0076
:101d40000044eb000804e00018003200e08180004d
:101d5000f181800018c0b3000e81e800920190006c
:101d60001201780078fa07000000e00001003c0052
:101d70000044eb000804e0000c0032000082800008
:101d80001182800018c0b3000e81e800920190001b
:101d9000120178006cfa07000000e00001003c002e
:101da0000044eb000804e00068013a0080818000f4
:101db0009181800018c0b3000e81e800920190006c
:101dc000120178005efa07000000e0000100350013
:101dd0000044eb000804e00030003200a0818000e5
:101de000b181800018c0b3000e81e800920190001c
:101df0001201780052fa07000000e00001003500ef
:101e00000044eb000804e00024003200c0818000a0
:101e1000d181800018c0b3000e81e80092019000cb
:101e20001201780048fa07000000e00001003c00c1
:101e30000044eb000804e00018003200e08180005c
:101e4000f181800018c0b3000e81e800920190007b
:101e5000120178003cfa07000000e00001003c009d
:101e60000044eb000804e0000c0032000082800017
:101e70001182800018c0b3000e81e800920190002a
:101e80001201780030fa07000000e00001003c0079
:101e90000044eb000804e0002c013a00808180003f
:101ea0009181800018c0b3000e81e800920190007b
:101eb0001201780024fa07000000e00001003c0055
:101ec0000044eb000804e00030003200a0818000f4
:101ed000b181800018c0b3000e81e800920190002b
:101ee0001201780018fa07000000e00001003c0031
:101ef0000044eb000804e00024003200c0818000b0
:101f0000d181800018c0b3000e81e80092019000da
:101f1000120178000cfa07000000e00001003c000c
:101f20000044eb000804e00018003200e08180006b
:101f3000f181800018c0b3000e81e800920190008a
:101f400012017800fef907000000e00001003500f2
:101f50000044eb000804e0000c0032000082800026
:101f60001182800018c0b3000e81e8009201900039
:101f700012017800f4f907000000e00001003c00c5
:101f80000044eb000804e000f0003a00808180008b
:101f90009181800018c0b3000e81e800920190008a
:101fa00012017800e8f907000000e00001003c00a1
:101fb0000044eb000804e00030003200a081800003
:101fc000b181800018c0b3000e81e800920190003a
:101fd00012017800daf907000000e0000100350086
:101fe0000044eb000804e00024003200c0818000bf
:101ff000d181800018c0b3000e81e80092019000ea
:1020000012017800d0f907000000e00001003c0058
:102010000044eb000804e00018003200e08180007a
:10202000f181800018c0b3000e81e8009201900099
:1020300012017800c2f907000000e000010035003d
:102040000044eb000804e0000c0032000082800035
:102050001182800018c0b3000e81e8009201900048
:1020600012017800b8f907000000e00001003c0010
:102070000044eb000804e000b4003a0080818000d6
:102080009181800018c0b3000e81e8009201900099
:1020900012017800aaf907000000e00001003500f5
:1020a0000044eb000804e00030003200a081800012
:1020b000b181800018c0b3000e81e8009201900049
:1020c00012017800a0f907000000e00001003c00c8
:1020d0000044eb000804e00024003200c0818000ce
:1020e000d181800018c0b3000e81e80092019000f9
:1020f0001201780094f907000000e00001003c00a4
:102100000044eb000804e00018003200e081800089
:10211000f181800018c0b3000e81e80092019000a8
:102120001201780086f907000000e0000100350088
:102130000044eb000804e0000c0032000082800044
:102140001182800018c0b3000e81e8009201900057
:10215000120178007cf907000000e00001003c005b
:102160000044eb000804e00078003a008081800021
:102170009181800018c0b3000e81e80092019000a8
:10218000120178006ef907000000e0000100350040
:102190000044eb000804e00030003200a081800021
:1021a000b181800018c0b3000e81e8009201900058
:1021b0001201780062f907000000e000010035001c
:1021c0000044eb000804e00024003200c0818000dd
:1021d000d181800018c0b3000e81e8009201900008
:1021e0001201780058f907000000e00001003c00ef
:1021f0000044eb000804e00018003200e081800099
:10220000f181800018c0b3000e81e80092019000b7
:10221000120178004af907000000e00001003500d3
:102220000044eb000804e0000c0032000082800053
:102230001182800018c0b3000e81e8009201900066
:102240001201780040f907000000e00001003c00a6
:102250000044eb000804e0003c003a00808180006c
:102260009181800018c0b3000e81e80092019000b7
:102270001201780032f907000000e000010035008b
:102280000044eb000804e00033003200a08180002d
:10229000b181800018c0b3000e81e8009201900067
:1022a0001201780026f907000000e0000100350067
:1022b0000044eb000804e00027003200c0818000e9
:1022c000d181800018c0b3000e81e8009201900017
:1022d000120178001af907000000e0000100350043
:1022e0000044eb000804e0001b003200e0818000a5
:1022f000f181800018c0b3000e81e80092019000c7
:10230000120178000ef907000000e000010035001e
:102310000044eb000804e0000f003200008280005f
:102320001182800018c0b3000e81e8009201900075
:102330001201780004f907000000e00001003c00f1
:102340000044eb000804e0000300320020c0b300aa
:10235000004f780061063700808180009181800005
:1023600018c0b3000e81e8009201900012017800bd
:10237000f5f807000000e00001003c000044eb001d
:102380000804e00030003200a0818000b1818000ac
:1023900018c0b3000e81e80092019000120178008d
:1023a000e9f807000000e00001003c000044eb00f9
:1023b0000804e00024003200c0818000d181800048
:1023c00018c0b3000e81e80092019000120178005d
:1023d000ddf807000000e00001003c000044eb00d5
:1023e0000804e00018003200e0818000f1818000e4
:1023f00018c0b3000e81e80092019000120178002d
:10240000d1f807000000e00001003c000044eb00b0
:102410000804e0000c00320000828000118280007d
:1024200018c0b3000e81e8009201900012017800fc
:10243000c3f807000000e000010035000044eb0095
:102440000804e00068013a008081800091818000ea
:1024500018c0b3000e81e8009201900012017800cc
:10246000b9f807000000e00001003c000044eb0068
:102470000804e00030003200a0818000b1818000bb
:1024800018c0b3000e81e80092019000120178009c
:10249000adf807000000e00001003c000044eb0044
:1024a0000804e00024003200c0818000d181800057
:1024b00018c0b3000e81e80092019000120178006c
:1024c0009ff807000000e000010035000044eb0029
:1024d0000804e00018003200e0818000f1818000f3
:1024e00018c0b3000e81e80092019000120178003c
:1024f00095f807000000e00001003c000044eb00fc
:102500000804e0000c00320000828000118280008c
:1025100018c0b3000e81e80092019000120178000b
:1025200089f807000000e00001003c000044eb00d7
:102530000804e0002c013a00808180009181800035
:1025400018c0b3000e81e8009201900012017800db
:102550007df807000000e00001003c000044eb00b3
:102560000804e00030003200a0818000b1818000ca
:1025700018c0b3000e81e8009201900012017800ab
:1025800071f807000000e00001003c000044eb008f
:102590000804e00024003200c0818000d181800066
:1025a00018c0b3000e81e80092019000120178007b
:1025b00063f807000000e000010035000044eb0074
:1025c0000804e00018003200e0818000f181800002
:1025d00018c0b3000e81e80092019000120178004b
:1025e00059f807000000e00001003c000044eb0047
:1025f0000804e0000c00320000828000118280009c
:1026000018c0b3000e81e80092019000120178001a
:102610004bf807000000e000010035000044eb002b
:102620000804e000f0003a00808180009181800081
:1026300018c0b3000e81e8009201900012017800ea
:1026400041f807000000e00001003c000044eb00fe
:102650000804e00030003200a0818000b1818000d9
:1026600018c0b3000e81e8009201900012017800ba
:1026700033f807000000e000010035000044eb00e3
:102680000804e00024003200c0818000d181800075
:1026900018c0b3000e81e80092019000120178008a
:1026a00029f807000000e00001003c000044eb00b6
:1026b0000804e00018003200e0818000f181800011
:1026c00018c0b3000e81e80092019000120178005a
:1026d0001df807000000e00001003c000044eb0092
:1026e0000804e0000c0032000082800011828000ab
:1026f00018c0b3000e81e80092019000120178002a
:102700000ff807000000e000010035000044eb0076
:102710000804e000b4003a008081800091818000cc
:1027200018c0b3000e81e8009201900012017800f9
:1027300005f807000000e00001003c000044eb0049
:102740000804e00030003200a0818000b1818000e8
:1027500018c0b3000e81e8009201900012017800c9
:10276000f7f707000000e000010035000044eb002f
:102770000804e00024003200c0818000d181800084
:1027800018c0b3000e81e800920190001201780099
:10279000ebf707000000e000010035000044eb000b
:1027a0000804e00018003200e0818000f181800020
:1027b00018c0b3000e81e800920190001201780069
:1027c000e1f707000000e00001003c000044eb00de
:1027d0000804e0000c0032000082800011828000ba
:1027e00018c0b3000e81e800920190001201780039
:1027f000d5f707000000e00001003c000044eb00ba
:102800000804e00078003a00808180009181800017
:1028100018c0b3000e81e800920190001201780008
:10282000c9f707000000e00001003c000044eb0095
:102830000804e00030003200a0818000b1818000f7
:1028400018c0b3000e81e8009201900012017800d8
:10285000bbf707000000e000010035000044eb007a
:102860000804e00024003200c0818000d181800093
:1028700018c0b3000e81e8009201900012017800a8
:10288000aff707000000e000010035000044eb0056
:102890000804e00018003200e0818000f18180002f
:1028a00018c0b3000e81e800920190001201780078
:1028b000a5f707000000e00001003c000044eb0029
:1028c0000804e0000c0032000082800011828000c9
:1028d00018c0b3000e81e800920190001201780048
:1028e00097f707000000e000010035000044eb000e
:1028f0000804e0003c003a00808180009181800063
:1029000018c0b3000e81e800920190001201780017
:102910008bf707000000e000010035000044eb00e9
:102920000804e00033003200a0818000b181800003
:1029300018c0b3000e81e8009201900012017800e7
:102940007ff707000000e000010035000044eb00c5
:102950000804e00027003200c0818000d18180009f
:1029600018c0b3000e81e8009201900012017800b7
:1029700073f707000000e000010035000044eb00a1
:102980000804e0001b003200e0818000f18180003b
:1029900018c0b3000e81e800920190001201780087
:1029a00069f707000000e00001003c000044eb0074
:1029b0000804e0000f0032000082800011828000d5
:1029c00018c0b3000e81e800920190001201780057
:1029d0005bf707000000e000010035000044eb0059
:1029e0000804e0000300320010c0b300004f78007c
:1029f000ba043700808180009181800018c0b30044
:102a00000e81e80092019000120178004ef7070055
:102a10000000e00001003c000044eb000804e0007e
:102a200030003200a0818000b181800018c0b30066
:102a30000e81e800920190001201780040f7070033
:102a40000000e000010035000044eb000804e00055
:102a500024003200c0818000d181800018c0b30002
:102a60000e81e800920190001201780036f707000d
:102a70000000e00001003c000044eb000804e0001e
:102a800018003200e0818000f181800018c0b3009e
:102a90000e81e80092019000120178002af70700e9
:102aa0000000e00001003c000044eb000804e000ee
:102ab0000c003200008280001182800018c0b30038
:102ac0000e81e80092019000120178001ef70700c5
:102ad0000000e00001003c000044eb000804e000be
:102ae00068013a00808180009181800018c0b300a5
:102af0000e81e800920190001201780010f70700a3
:102b00000000e000010035000044eb000804e00094
:102b100030003200a0818000b181800018c0b30075
:102b20000e81e800920190001201780006f707007c
:102b30000000e00001003c000044eb000804e0005d
:102b400024003200c0818000d181800018c0b30011
:102b50000e81e8009201900012017800f8f607005b
:102b60000000e000010035000044eb000804e00034
:102b700018003200e0818000f181800018c0b300ad
:102b80000e81e8009201900012017800eef6070035
:102b90000000e00001003c000044eb000804e000fd
:102ba0000c003200008280001182800018c0b30047
:102bb0000e81e8009201900012017800e2f6070011
:102bc0000000e00001003c000044eb000804e000cd
:102bd0002c013a00808180009181800018c0b300f0
:102be0000e81e8009201900012017800d4f60700ef
:102bf0000000e000010035000044eb000804e000a4
:102c000030003200a0818000b181800018c0b30084
:102c10000e81e8009201900012017800c8f60700ca
:102c20000000e000010035000044eb000804e00073
:102c300024003200c0818000d181800018c0b30020
:102c40000e81e8009201900012017800bcf60700a6
:102c50000000e000010035000044eb000804e00043
:102c600018003200e0818000f181800018c0b300bc
:102c70000e81e8009201900012017800b2f6070080
:102c80000000e00001003c000044eb000804e0000c
:102c90000c003200008280001182800018c0b30056
:102ca0000e81e8009201900012017800a6f607005c
:102cb0000000e00001003c000044eb000804e000dc
:102cc000f0003a00808180009181800018c0b3003c
:102cd0000e81e800920190001201780098f607003a
:102ce0000000e000010035000044eb000804e000b3
:102cf00030003200a0818000b181800018c0b30094
:102d00000e81e80092019000120178008cf6070015
:102d10000000e000010035000044eb000804e00082
:102d200024003200c0818000d181800018c0b3002f
:102d30000e81e800920190001201780080f60700f1
:102d40000000e000010035000044eb000804e00052
:102d500018003200e0818000f181800018c0b300cb
:102d60000e81e800920190001201780074f60700cd
:102d70000000e000010035000044eb000804e00022
:102d80000c003200008280001182800018c0b30065
:102d90000e81e800920190001201780068f60700a9
:102da0000000e000010035000044eb000804e000f2
:102db000b4003a00808180009181800018c0b30087
:102dc0000e81e80092019000120178005cf6070085
:102dd0000000e000010035000044eb000804e000c2
:102de00030003200a0818000b181800018c0b300a3
:102df0000e81e800920190001201780052f607005f
:102e00000000e00001003c000044eb000804e0008a
:102e100024003200c0818000d181800018c0b3003e
:102e20000e81e800920190001201780044f607003c
:102e30000000e000010035000044eb000804e00061
:102e400018003200e0818000f181800018c0b300da
:102e50000e81e800920190001201780038f6070018
:102e60000000e000010035000044eb000804e00031
:102e70000c003200008280001182800018c0b30074
:102e80000e81e80092019000120178002cf60700f4
:102e90000000e000010035000044eb000804e00001
:102ea00078003a00808180009181800018c0b300d2
:102eb0000e81e800920190001201780022f60700ce
:102ec0000000e00001003c000044eb000804e000ca
:102ed00030003200a0818000b181800018c0b300b2
:102ee0000e81e800920190001201780014f60700ac
:102ef0000000e000010035000044eb000804e000a1
:102f000024003200c0818000d181800018c0b3004d
:102f10000e81e80092019000120178000af6070085
:102f20000000e00001003c000044eb000804e00069
:102f300018003200e0818000f181800018c0b300e9
:102f40000e81e8009201900012017800fcf5070064
:102f50000000e000010035000044eb000804e00040
:102f60000c003200008280001182800018c0b30083
:102f70000e81e8009201900012017800f0f5070040
:102f80000000e000010035000044eb000804e00010
:102f90003c003a00808180009181800018c0b3001d
:102fa0000e81e8009201900012017800e6f507001a
:102fb0000000e00001003c000044eb000804e000d9
:102fc00046033200a0818000b181800018c0b300a8
:102fd0000e81e8009201900012017800daf50700f6
:102fe0000000e00001003c000044eb000804e000a9
:102ff0003a033200c0818000d181800018c0b30044
:103000000e81e8009201900012017800cef50700d1
:103010000000e00001003c000044eb000804e00078
:103020002e033200e0818000f181800018c0b300df
:103030000e81e8009201900012017800c0f50700af
:103040000000e000010035000044eb000804e0004f
:1030500022033200008280001182800018c0b30079
:103060000e81e8009201900012017800b4f507008b
:103070000000e000010035000044eb000804e0001f
:10308000160332008481800095818000c081800019
:10309000d181800018c0b3000001be000400be0052
:1030a000a9f507000000e00001003c000044eb002f
:1030b0000804e0000300320030c0b300004f780085
:1030c000060337008481800095818000c0818000e4
:1030d000d181800018c0b3000001be000400be0012
:1030e00097f507000000e000010035000044eb0008
:1030f0000804e0000300320040c0b300004f780035
:10310000f6023700808180009181800018c0b300f2
:103110000e81e80092019000120178008af5070004
:103120000000e00001003c000044eb000804e00067
:1031300033003200a0818000b181800018c0b3004c
:103140000e81e80092019000120178007ef50700e0
:103150000000e00001003c000044eb000804e00037
:1031600027003200c0818000d181800018c0b300e8
:103170000e81e800920190001201780072f50700bc
:103180000000e00001003c000044eb000804e00007
:103190001b003200e0818000f181800018c0b30084
:1031a0000e81e800920190001201780066f5070098
:1031b0000000e00001003c000044eb000804e000d7
:1031c0000f003200008280001182800018c0b3001e
:1031d0000e81e80092019000120178005af5070074
:1031e0000000e00001003c000044eb000804e000a7
:1031f000030032000040eb00004f7800b7023700b8
:10320000808180009181800018c0b3000e81e800a9
:10321000920190001201780049f507000000e000db
:10322000010035000044eb000804e00030003200eb
:10323000a0818000b181800018c0b3000e81e80039
:1032400092019000120178003ff507000000e000b5
:1032500001003c000044eb000804e00024003200c0
:10326000c0818000d181800018c0b3000e81e800c9
:10327000920190001201780033f507000000e00091
:1032800001003c000044eb000804e000180032009c
:10329000e0818000f181800018c0b3000e81e80059
:1032a000920190001201780027f507000000e0006d
:1032b00001003c000044eb000804e0000c00320078
:1032c000008280001182800018c0b3000e81e800e7
:1032d000920190001201780019f507000000e0004b
:1032e000010035000044eb000804e00078003a00db
:1032f000808180009181800018c0b3000e81e800b9
:1033000092019000120178000df507000000e00026
:10331000010035000044eb000804e00030003200fa
:10332000a0818000b181800018c0b3000e81e80048
:10333000920190001201780003f507000000e00000
:1033400001003c000044eb000804e00024003200cf
:10335000c0818000d181800018c0b3000e81e800d8
:103360009201900012017800f5f407000000e000df
:10337000010035000044eb000804e00018003200b2
:10338000e0818000f181800018c0b3000e81e80068
:103390009201900012017800ebf407000000e000b9
:1033a00001003c000044eb000804e0000c00320087
:1033b000008280001182800018c0b3000e81e800f6
:1033c0009201900012017800ddf407000000e00097
:1033d000010035000044eb000804e0003c003a0026
:1033e000808180009181800018c0b3000e81e800c8
:1033f0009201900012017800d1f407000000e00073
:10340000010035000044eb000804e0003302320004
:10341000a0818000b181800018c0b3000e81e80057
:103420009201900012017800c5f407000000e0004e
:10343000010035000044eb000804e00027023200e0
:10344000c0818000d181800018c0b3000e81e800e7
:103450009201900012017800bbf407000000e00028
:1034600001003c000044eb000804e0001b023200b5
:10347000e0818000f181800018c0b3000e81e80077
:103480009201900012017800aff407000000e00004
:1034900001003c000044eb000804e0000f02320091
:1034a000008280001182800018c0b3000e81e80005
:1034b0009201900012017800a1f407000000e000e2
:1034c000010035000044eb000804e0000302320074
:1034d00084818000958180000082800011828000bc
:1034e00018c0b3000001be000400be0096f407003f
:1034f0000000e00001003c000044eb000804e00094
:103500000300320040c0b300004f7800f3013700e1
:10351000848180009581800000828000118280007b
:1035200018c0b3000001be000400be0084f4070010
:103530000000e000010035000044eb000804e0005a
:103540000300320030c0b300004f7800e3013700c1
:10355000808180009181800018c0b3000e81e80056
:10356000920190001201780077f407000000e0005b
:1035700001003c000044eb000804e0003000320091
:10358000a0818000b181800018c0b3000e81e800e6
:1035900092019000120178006bf407000000e00037
:1035a00001003c000044eb000804e000240032006d
:1035b000c0818000d181800018c0b3000e81e80076
:1035c00092019000120178005df407000000e00015
:1035d000010035000044eb000804e0001800320050
:1035e000e0818000f181800018c0b3000e81e80006
:1035f000920190001201780051f407000000e000f1
:10360000010035000044eb000804e0000c0032002b
:10361000008280001182800018c0b3000e81e80093
:10362000920190001201780047f407000000e000ca
:1036300001003c000044eb000804e00078003a0080
:10364000808180009181800018c0b3000e81e80065
:10365000920190001201780039f407000000e000a8
:10366000010035000044eb000804e00030003200a7
:10367000a0818000b181800018c0b3000e81e800f5
:1036800092019000120178002ff407000000e00082
:1036900001003c000044eb000804e000240032007c
:1036a000c0818000d181800018c0b3000e81e80085
:1036b000920190001201780021f407000000e00060
:1036c000010035000044eb000804e000180032005f
:1036d000e0818000f181800018c0b3000e81e80015
:1036e000920190001201780015f407000000e0003c
:1036f000010035000044eb000804e0000c0032003b
:10370000008280001182800018c0b3000e81e800a2
:1037100092019000120178000bf407000000e00015
:1037200001003c000044eb000804e0003c003a00cb
:10373000808180009181800018c0b3000e81e80074
:103740009201900012017800fff307000000e000f2
:1037500001003c000044eb000804e0005f0132007f
:10376000a0818000b181800018c0b3000e81e80004
:103770009201900012017800f1f307000000e000d0
:10378000010035000044eb000804e0005301320062
:10379000c0818000d181800018c0b3000e81e80094
:1037a0009201900012017800e5f307000000e000ac
:1037b000010035000044eb000804e000470132003e
:1037c000e0818000f181800018c0b3000e81e80024
:1037d0009201900012017800d9f307000000e00088
:1037e000010035000044eb000804e0003b0132001a
:1037f000008280001182800018c0b3000e81e800b2
:103800009201900012017800cff307000000e00061
:1038100001003c000044eb000804e0002f013200ee
:10382000e4818000f5818000c0818000d18180002a
:1038300018c0b3000001be000400be00c2f30700c0
:103840000000e00001003c000044eb000804e00040
:103850000300320040c0b300004f78001f01370062
:10386000e4818000f5818000c0818000d1818000ea
:1038700018c0b3000001be000400be00b0f3070092
:103880000000e000010035000044eb000804e00007
:103890000300320030c0b300004f78000f01370042
:1038a000808180009181800018c0b3000e81e80003
:1038b0009201900012017800a3f307000000e000dd
:1038c00001003c000044eb000804e000300032003e
:1038d000a0818000b181800018c0b3000e81e80093
:1038e000920190001201780097f307000000e000b9
:1038f00001003c000044eb000804e000240032001a
:10390000c0818000d181800018c0b3000e81e80022
:10391000920190001201780089f307000000e00096
:10392000010035000044eb000804e00018003200fc
:10393000e0818000f181800018c0b3000e81e800b2
:1039400092019000120178007df307000000e00072
:10395000010035000044eb000804e0000c003200d8
:10396000008280001182800018c0b3000e81e80040
:10397000920190001201780071f307000000e0004e
:10398000010035000044eb000804e000b4003a00f8
:10399000808180009181800018c0b3000e81e80012
:1039a000920190001201780067f307000000e00028
:1039b00001003c000044eb000804e000300032004d
:1039c000a0818000b181800018c0b3000e81e800a2
:1039d000920190001201780059f307000000e00006
:1039e000010035000044eb000804e0002400320030
:1039f000c0818000d181800018c0b3000e81e80032
:103a000092019000120178004df307000000e000e1
:103a1000010035000044eb000804e000180032000b
:103a2000e0818000f181800018c0b3000e81e800c1
:103a3000920190001201780041f307000000e000bd
:103a4000010035000044eb000804e0000c003200e7
:103a5000008280001182800018c0b3000e81e8004f
:103a6000920190001201780035f307000000e00099
:103a7000010035000044eb000804e00078003a0043
:103a8000808180009181800018c0b3000e81e80021
:103a9000920190001201780029f307000000e00075
:103aa000010035000044eb000804e0003000320063
:103ab000a0818000b181800018c0b3000e81e800b1
:103ac00092019000120178001ff307000000e0004f
:103ad00001003c000044eb000804e0002400320038
:103ae000c0818000d181800018c0b3000e81e80041
:103af000920190001201780013f307000000e0002b
:103b000001003c000044eb000804e0001800320013
:103b1000e0818000f181800018c0b3000e81e800d0
:103b2000920190001201780005f307000000e00008
:103b3000010035000044eb000804e0000c003200f6
:103b4000008280001182800018c0b3000e81e8005e
:103b50009201900012017800f9f207000000e000e5
:103b6000010035000044eb000804e0003c003a008e
:103b7000808180009181800018c0b3000e81e80030
:103b80009201900012017800edf207000000e000c1
:103b9000010035000044eb000804e0004f00320053
:103ba000a0818000b181800018c0b3000e81e800c0
:103bb0009201900012017800e1f207000000e0009d
:103bc000010035000044eb000804e000430032002f
:103bd000c0818000d181800018c0b3000e81e80050
:103be0009201900012017800d7f207000000e00077
:103bf00001003c000044eb000804e0003700320004
:103c0000e0818000f181800018c0b3000e81e800df
:103c10009201900012017800c9f207000000e00054
:103c2000010035000044eb000804e0002b003200e6
:103c3000008280001182800018c0b3000e81e8006d
:103c40009201900012017800bdf207000000e00030
:103c5000010035000044eb000804e0001f003200c2
:103c6000e4818000f5818000008280001182800064
:103c700018c0b3000001be000400be00b2f207008d
:103c80000000e00001003c000044eb000804e000fc
:103c90000300320040c0b300004f78000f0037002f
:103ca000e4818000f5818000008280001182800024
:103cb00018c0b3000001be000400be00a0f207005f
:103cc0000000e000010035000044eb000804e000c3
:103cd0000200320030c0b300004f78001e40780070
:103ce0000004e00003003a0020c0b3001bf0b7005e
:103cf000170037001e407800e24f500003003a00e2
:103d000040c0b3001bf0b700110037001e40780020
:103d1000e14f500003003a0060c0b3001bf0b70051
:103d20000b0037001e407800e44f500003003a00bb
:103d3000a0c0b3001bf0b700050037001e4078009c
:103d4000e34f500002003a0080c0b3001bf0b70000
:103d50001bd0bf008080fb001ad0bf000080fb009a
:103d60000000e900808f5000020032001bd0bf002d
:103d70001af0b7004f0478000080fa000000060037
:103d80000000fa001160800080ff2f0000806000ba
:103d90001060880000fa20002060880023aca80092
:103da000238ca80011618000f03f2f00008060008c
:103db00000a0a00010618800300020002061880071
:103dc000c3aca800c38ca80011668000f03f2f0090
:103dd0000080600000a0a000106688003000200075
:103de0002066880001eca8000080fa0000000600b0
:103df0000600fa00881f7800008fbe0064004700ac
:103e0000020878006400470010007800e10f5000bd
:103e100028003a001e0178009e019000228188004f
:103e20003381880018c0b3006011b8001e0078000c
:103e30009e00900044f207000000e00001003d00f9
:103e40000044eb000804e0000d00320023cca90080
:103e500023eca80015eea8002081800031818000ad
:103e6000020020000322240059f407000702070083
:103e700058f20700000078003061880034003700f5
:103e800023cca80023eca90015cea8002081800037
:103e90003181800002002000032224004cf407003e
:103ea000fa0107004bf2070000007800306188003b
:103eb000270037001e0178009e0190006281880073
:103ec0007381880018c0b3006011b8001e0078002c
:103ed0009e0090001cf207000000e00001003d0081
:103ee0000044eb000804e0000d003200c3cca90040
:103ef00024eea800c3eca8006081800071818000de
:103f0000020020000322240031f40700df01070033
:103f100030f2070000007800306688000c0037009f
:103f2000c3cca800c3eca90024cea8006081800007
:103f300071818000020020000322240024f4070085
:103f4000d201070023f207000000780030668800e5
:103f50004f0478000080fa00000006000600fa0016
:103f6000008fbe006400470002087800640047002c
:103f700010007800e10f500005003a001e017800a3
:103f80009e0190000281880013818800050037009f
:103f90001e0078009e00900001f0a2004081880081
:103fa000518188000080fa00000006000000fa003d
:103fb000889fbe0064818000758180004081800000
:103fc0005181800018c0b3000001be000400be0093
:103fd000dbf107000000e000010035000044eb00c9
:103fe0000804e0000d003200488180005981800003
:103ff0006481800075818000b0808000c180800075
:104000000001be000400be002df207000801be0042
:10401000ce01070060818800718188006481800082
:1040200075818000408180005181800018c0b300fc
:104030000001be000400be00c3f107000000e00064
:1040400001003c000044eb000804e0000d003200d9
:1040500048818000598180006481800075818000e2
:10406000b0808000c18080000001be000400be005e
:104070000af207000801be009a010700608188006b
:1040800071818800608180007181800018c0b30058
:104090006011b800acf107000000e00001003c0036
:1040a0000044eb000804e00004003200c3cca90087
:1040b00024eea800c3eca80003003700c3eca9005d
:1040c00024cea800c3cca80060818000718180004c
:1040d0006e0107000200200003222400bcf3070049
:1040e000bcf1070000007800306688002481800061
:1040f00035818000008180001181800018c0b300ec
:104100000001be000400be008df107000000e000c9
:10411000010035000044eb000804e0000d0032000f
:104120000881800019818000248180003581800011
:10413000b0808000c18080000001be000400be008d
:10414000dff107000801be00800107002081880020
:1041500031818800248180003581800000818000c9
:104160001181800018c0b3000001be000400be0031
:1041700075f107000000e00001003c000044eb0086
:104180000804e0000d0032000881800019818000e1
:104190002481800035818000b0808000c180800053
:1041a0000001be000400be00bcf107000801be0013
:1041b0004c01070020818800318188002081800027
:1041c0003181800018c0b3006011b8005ef10700b3
:1041d0000000e00001003c000044eb000804e000a7
:1041e0000400320023cca90015eea80023eca8009f
:1041f0000300370023eca90015cea80023cca800ab
:104200002081800031818000200107000200200011
:10421000032224006ef307006ef10700000078000f
:10422000306188004f04be000080fa0000000600e4
:104230000000fa0013e1a90011e1a9001061a80033
:104240001021a90081088000f0fc2f000080600090
:10425000800888000a21ef000621ef0020262000b8
:104260007008880000a025006008880021428000b6
:1042700080ff2f00008060000000a0002042880026
:104280000108a9002108a80011e1a8000080fa0097
:10429000000006000000fa0005e1a9000421a900c1
:1042a0000000200081342400050007000068a900f8
:1042b0002068a80005e1a8000080fa0000000600c0
:1042c0000400fa00881f7800008fbe0021088000db
:1042d000f0fc2f0000806000200888001e0178009c
:1042e0009e0190000068290081c1240059f2070056
:1042f00018c0b30002f02f00f377240012f107007a
:104300000000e00001003c000044eb000804e00075
:104310005400320021088000f0fc2f000080600073
:104320000040a000200888001e0178009e01900037
:104330000068290081c1240046f207000200200025
:104340000310240043f2070018c0b30002f02f004e
:10435000f3772400fcf007000000e00001003c00bf
:104360000044eb000804e000320032002108800025
:10437000f0fc2f00008060000050a00020088800a2
:104380001e0178009e0190000068290081c1240070
:1043900030f2070002002000032824002df207005d
:1043a00018c0b30002f02f00f3772400e6f00700f6
:1043b0000000e00001003c000044eb000804e000c5
:1043c000100032002108800000032000010070006e
:1043d000200888001e0178009e01900000682900d6
:1043e00081c124001bf207000200200003382400d2
:1043f00018f20700d6f007000000780010088800c7
:10440000200037001e0178009e01900000682900fe
:1044100081c124000ff207000200200003282400bd
:104420000cf20700caf007000000780010088800ae
:10443000140037001e0178009e01900000682900da
:1044400081c1240003f207000200200003102400b1
:1044500000f20700bef00700000078001008880096
:10446000080037001e0178009e01900000682900b6
:1044700081c12400f7f10700b5f0070000007800c3
:10448000100888004f0478000080fa000000060041
:104490000000fa001fe1a9001e21a9009080800001
:1044a000a1808000050007000368a9002368a80018
:1044b0001fe1a8000080fa00000006000400fa00d6
:1044c000881f7800008fbe00f1088000f0fc2f00ec
:1044d00000806000f00888001e0178009e019000b6
:1044e0000068290081c12400daf1070018c0b30078
:1044f00002f02f00f377240093f007000000e000a3
:1045000001003c000044eb000804e00054003200cd
:10451000f1088000f0fc2f00008060000040a00047
:10452000f00888001e0178009e01900000682900b4
:1045300081c12400c7f107000200200003102400fd
:10454000c4f1070018c0b30002f02f00f377240075
:104550007df007000000e00001003c000044eb009b
:104560000804e00032003200f1088000f0fc2f0067
:10457000008060000050a000f00888001e01780054
:104580009e0190000068290081c12400b1f107005c
:104590000200200003282400aef1070018c0b30079
:1045a00002f02f00f377240067f007000000e0001e
:1045b00001003c000044eb000804e0001000320061
:1045c000f10880000003200001007000f00888005e
:1045d0001e0178009e0190000068290081c124001e
:1045e0009cf10700020020000338240099f1070025
:1045f00057f0070000007800d0088800200037003e
:104600001e0178009e0190000068290081c12400ed
:1046100090f1070002002000032824008df107001c
:104620004bf0070000007800d00888001400370025
:104630001e0178009e0190000068290081c12400bd
:1046400084f10700020020000310240081f107001c
:104650003ff0070000007800d0088800080037000d
:104660001e0178009e0190000068290081c124008d
:1046700078f1070036f0070000007800d0088800c5
:104680004f0478000080fa00000006000400fa00e1
:10469000881f7800008fbe0018c0b3006011b800fa
:1046a0001e0078009e00900027f007000000e00048
:1046b00001003d000044eb000804e000030032006c
:1046c0001e0078009e009000030037001e00780056
:1046d0009e00900001f0a2004f0478000080fa00d4
:1046e000000006000800fa00881f7800008fbe0056
:1046f000640047000288be0018c0b3006400470091
:1047000010017800900190001e0078009e0090003b
:104710000df007000000e00001003c000044eb0049
:104720000804e000030032001e0078009e009000a4
:1047300003003700640047009000900010007800ec
:104740004f0478000080fa00000006000800fa001c
:10475000881f7800008fbe00640047000288be00fa
:1047600018c0b30064004700100178009001900069
:104770001e0078009e009000f1ef07000000e000ae
:10478000010035000044eb000804e00003003200a3
:104790001e0078009e009000030037006400470070
:1047a00090009000100078004f0478000080fa001c
:1047b000000006000c00fa00881f7800008fbe0081
:1047c000640047000288be00680047000488be00fd
:1047d00018c0b300680047001001780090019000f5
:1047e0001e0078009e009000d7ef07000000e00058
:1047f00001003c000044eb000804e000040032002b
:1048000068004700301f7800201778000f0037003d
:1048100018c0b300640047001001780090019000b8
:104820001e0078009e009000c5ef07000000e00029
:10483000010035000044eb000804e00003003200f2
:1048400064004700301f7800201778001e007800b1
:104850009e0090004f0478000080fa0000000600df
:104860000400fa00008fbe00b2fd20009304240073
:104870001e0078009e009000f6f007000200200065
:1048800043332400d2f107000080fa000000060044
:104890000400fa00008fbe00b2fd20009304240043
:1048a0001e0078009e009000c9f107000200200061
:1048b00043332400e7f007000080fa000000060000
:1048c0000000fa0021e3a9002143a800011980009b
:1048d000f0cf2f0000806000001988002043a9005d
:1048e00001198000000e20000100700000198800ee
:1048f00011198000f0ff210000806000101988006d
:104900002343a80011198000f0cf2f000080600021
:10491000101988001119800030f82f000080600005
:104920000040a000101988002203a9002223a9003a
:1049300025e3a900f0c0b30024e3b70021198000eb
:10494000f00f2e008080600000f020000100700059
:10495000201988003303a9002e0ea8002f6ea8008e
:104960006f2ea8001e2ea8004feea80030c3a8008e
:104970003163a8002e03a8003063a80031e3a8002b
:104980004119800000fc2f00008060004019880061
:1049900028e3a90001a8a90021a8a80021e3a800f4
:1049a0000080fa00000006000000fa002023a800a2
:1049b0000080fa00000006000000fa00200021003c
:1049c0000080fa00000006000000fa000ad0bf00d4
:1049d0000080fa00000006000000fa000a70ef00f4
:1049e0000080fa00000006000000fa00f00320003a
:1049f000303a8800213a8000f0f32f0000806000f8
:104a0000203a8800213a800000fe2f0000806000dc
:104a10000000a000203a880012002000800720003b
:104a2000a109200033742000804978008149780072
:104a300082497800103a8000000178000200a0004e
:104a40006004200071052000237420008049780054
:104a5000814978008249780000000000113a800006
:104a6000000027008080600000002100808f50003f
:104a7000faff3a0000000000113a80000002200016
:104a8000008060000000e000fbff32000080fa00c0
:044a9000000006001c
:020000040000fa
:104a94001a10000002000000800000000c1000004a
:104aa4000600000080000000121000000400000056
:104ab4008200000000007a00440000001e10000084
:104ac4002600000080000000161000000400000012
:104ad400820000000000a000400000000010000060
:104ae4000c000000800000001c1000000200000008
:084af40080000000000000003a
:020000040000fa
:104afc000000fa000e2eef001e2eef002e2eef00ff
:104b0c003e2eef004e2eef005e2eef006e2eef00cd
:104b1c00214ea90060cea90060eea90011cea9001b
:104b2c0011eea90020cea90020eea9000080fa0009
:044b3c00000006006f
:020000040000fa
:02000004000af0
:04afe000cfff00009f
:020000040000fa
:02000004000af0
:04afe400ffff00006b
:020000040000fa
:02000004000af0
:04afe8007fff0000e7
:020000040000fa
:02000004000af0
:04afec005fff000003
:020000040000fa
:02000004000af0
:04aff00038ff000026
:020000040000fa
:02000004000af0
:04aff400ffffff005c
:00000001FF
