:020000040000fa
:080000000002040000000000f2
:020000040000fa
:04000800860300006b
:020000040000fa
:04000c008603000067
:020000040000fa
:040010008603000063
:020000040000fa
:04001400860300005f
:020000040000fa
:04001800860300005b
:020000040000fa
:04001c008603000057
:020000040000fa
:040020008603000053
:020000040000fa
:04002400860300004f
:020000040000fa
:04002800860300004b
:020000040000fa
:04002c008603000047
:020000040000fa
:040030008603000043
:020000040000fa
:0400340002030000c3
:020000040000fa
:04003800860300003b
:020000040000fa
:04003c008603000037
:020000040000fa
:040040008603000033
:020000040000fa
:04004400860300002f
:020000040000fa
:04004800fa020000b8
:020000040000fa
:04004c008603000027
:020000040000fa
:040050008603000023
:020000040000fa
:04005400860300001f
:020000040000fa
:04005800860300001b
:020000040000fa
:04005c006403000039
:020000040000fa
:040060008603000013
:020000040000fa
:04006400860300000f
:020000040000fa
:04006800860300000b
:020000040000fa
:04006c008603000007
:020000040000fa
:040070008603000003
:020000040000fa
:0400740086030000ff
:020000040000fa
:0400780086030000fb
:020000040000fa
:04007c0086030000f7
:020000040000fa
:0400800086030000f3
:020000040000fa
:0400840086030000ef
:020000040000fa
:0400880086030000eb
:020000040000fa
:04008c0086030000e7
:020000040000fa
:0400900086030000e3
:020000040000fa
:040094002203000043
:020000040000fa
:0400980086030000db
:020000040000fa
:04009c0086030000d7
:020000040000fa
:0400a00086030000d3
:020000040000fa
:0400a40086030000cf
:020000040000fa
:0400a80086030000cb
:020000040000fa
:0400ac0086030000c7
:020000040000fa
:0400b00086030000c3
:020000040000fa
:0400b40086030000bf
:020000040000fa
:0400b80086030000bb
:020000040000fa
:0400bc0086030000b7
:020000040000fa
:0400c00086030000b3
:020000040000fa
:0400c40086030000af
:020000040000fa
:0400c80086030000ab
:020000040000fa
:0400cc0086030000a7
:020000040000fa
:0400d00086030000a3
:020000040000fa
:0400d400860300009f
:020000040000fa
:0400d800860300009b
:020000040000fa
:0400dc008603000097
:020000040000fa
:0400e0008603000093
:020000040000fa
:0400e400860300008f
:020000040000fa
:0400e800860300008b
:020000040000fa
:0400ec008603000087
:020000040000fa
:0400f0008603000083
:020000040000fa
:0400f400860300007f
:020000040000fa
:0400f800860300007b
:020000040000fa
:0400fc008603000077
:020000040000fa
:040100008603000072
:020000040000fa
:04010400860300006e
:020000040000fa
:04010800860300006a
:020000040000fa
:04010c008603000066
:020000040000fa
:040110008603000062
:020000040000fa
:04011400860300005e
:020000040000fa
:04011800860300005a
:020000040000fa
:04011c008603000056
:020000040000fa
:040120008603000052
:020000040000fa
:04012400860300004e
:020000040000fa
:04012800860300004a
:020000040000fa
:04012c008603000046
:020000040000fa
:040130008603000042
:020000040000fa
:04013400860300003e
:020000040000fa
:04013800860300003a
:020000040000fa
:04013c008603000036
:020000040000fa
:040140008603000032
:020000040000fa
:04014400860300002e
:020000040000fa
:04014800860300002a
:020000040000fa
:04014c008603000026
:020000040000fa
:040150008603000022
:020000040000fa
:04015400860300001e
:020000040000fa
:04015800860300001a
:020000040000fa
:04015c008603000016
:020000040000fa
:040160008603000012
:020000040000fa
:04016400860300000e
:020000040000fa
:04016800860300000a
:020000040000fa
:04016c008603000006
:020000040000fa
:040170008603000002
:020000040000fa
:0401740086030000fe
:020000040000fa
:0401780086030000fa
:020000040000fa
:04017c0086030000f6
:020000040000fa
:0401800086030000f2
:020000040000fa
:0401840086030000ee
:020000040000fa
:0401880086030000ea
:020000040000fa
:04018c0086030000e6
:020000040000fa
:0401900086030000e2
:020000040000fa
:0401940086030000de
:020000040000fa
:0401980086030000da
:020000040000fa
:04019c0086030000d6
:020000040000fa
:0401a00086030000d2
:020000040000fa
:0401a40086030000ce
:020000040000fa
:0401a80086030000ca
:020000040000fa
:0401ac0086030000c6
:020000040000fa
:0401b00086030000c2
:020000040000fa
:0401b40086030000be
:020000040000fa
:0401b80086030000ba
:020000040000fa
:0401bc0086030000b6
:020000040000fa
:0401c00086030000b2
:020000040000fa
:0401c40086030000ae
:020000040000fa
:0401c80086030000aa
:020000040000fa
:0401cc0086030000a6
:020000040000fa
:0401d00086030000a2
:020000040000fa
:0401d400860300009e
:020000040000fa
:0401d800860300009a
:020000040000fa
:0401dc008603000096
:020000040000fa
:0401e0008603000092
:020000040000fa
:0401e400860300008e
:020000040000fa
:0401e800860300008a
:020000040000fa
:0401ec008603000086
:020000040000fa
:0401f0008603000082
:020000040000fa
:0401f400860300007e
:020000040000fa
:0401f800860300007a
:020000040000fa
:0401fc008603000076
:020000040000fa
:040200008603000071
:020000040000fa
:04020400860300006d
:020000040000fa
:040208008603000069
:020000040000fa
:04020c008603000065
:020000040000fa
:040210008603000061
:020000040000fa
:04021400860300005d
:020000040000fa
:040218008603000059
:020000040000fa
:04021c008603000055
:020000040000fa
:040220008603000051
:020000040000fa
:04022400860300004d
:020000040000fa
:040228008603000049
:020000040000fa
:04022c008603000045
:020000040000fa
:040230008603000041
:020000040000fa
:04023400860300003d
:020000040000fa
:040238008603000039
:020000040000fa
:04023c008603000035
:020000040000fa
:040240008603000031
:020000040000fa
:04024400860300002d
:020000040000fa
:040248008603000029
:020000040000fa
:04024c008603000025
:020000040000fa
:040250008603000021
:020000040000fa
:04025400860300001d
:020000040000fa
:040258008603000019
:020000040000fa
:04025c008603000015
:020000040000fa
:040260008603000011
:020000040000fa
:04026400860300000d
:020000040000fa
:040268008603000009
:020000040000fa
:04026c008603000005
:020000040000fa
:040270008603000001
:020000040000fa
:0402740086030000fd
:020000040000fa
:0402780086030000f9
:020000040000fa
:04027c0086030000f5
:020000040000fa
:0402800086030000f1
:020000040000fa
:10040000af0321000eff2c000e0188000000000049
:10041000000020000000e000020032000001200087
:100420002002880014000700ba0007000000e00066
:1004300003003a00400921000100200002003700bb
:100440000000200001002000810f70000100320038
:100450000f000700000020000000e0000200320052
:100460000000020000000000f20602000000000090
:100470000040da000000fe00200020000000e00044
:1004800002003200100020009001880000000600e9
:10049000a1028800800478000000eb001f003700f4
:1004a000e284440054a0b4009905ba00e2844400f8
:1004b00054a0b4009906ba00e284440054a0b400e9
:1004c0000006eb00476fde00fd07b200ae018800ba
:1004d000636ce10003003a000ad801000000eb0061
:1004e0000e003700606ce10008003a00004deb00a0
:1004f0000a05e800020039003420ec000af0a000f0
:100500008b05e900f9ff3e00040037006168e10057
:10051000010032000086eb000b00070019c7ba008b
:100520000e04e0001905ba0003003a000a00e000da
:10053000dbff3a0000000600fe07b200ae028800b2
:100540008a047800f5ff37000cd0a300e20f4d00bd
:100550001c00390089027800354dba000a05e80010
:10056000020039003420ec000af0a0008b05e900fd
:100570000f003200254dba000a05e80002003900dc
:100580003420ec000af0a0008b05e90008003200de
:100590000c00e0000600320015cdba000a05e800a4
:1005a000020039003420ec000af0a0008b05e900bd
:1005b0008984e80054a0b4000b00e000e2ff3a0098
:1005c000000006009902ba00055d78008b05e9007d
:1005d000f7ff3200c82ade00055d78008b05e900d0
:1005e000f3ff32000c00e000f1ff320019ddba0029
:1005f000eeff37000000fa000108a9000080fa00b1
:10060000004006003600f800809fbe00829fbe00ba
:10061000849fbe00869fbe000000fa000068a9000b
:1006200011040700850607000080fa004f03be0092
:100630004f02be004f01be004f00be003600f90061
:10064000004006003600f800809fbe00829fbe007a
:10065000849fbe00869fbe00889fbe000000fa00f7
:100660000368a90070808000818080000a01070073
:100670000004be0090808000a18080000001be00c8
:1006800000002000a1472400810007000001be00f7
:100690000800be0021000700e40007007080880009
:1006a000818088005a0207000080fa004f04be00d3
:1006b0004f03be004f02be004f01be004f00be0000
:1006c0003600f90000400600809fbe000000fa00de
:1006d00001a8a9000118800020002100010878006d
:1006e00011188000200021001100980021188000be
:1006f000200021002100980010c0b3000af0b700cc
:100700000080fa004f00be00004006000040da0002
:100710000000fe000000050003f0a200889fbe005c
:100720008a9fbe008c1f7800180107001f0133004c
:100730006450e1004f0032006420e10052003200ba
:1007400003826c0007003b000905d0000306d000bf
:10075000820f54000c065d000200390002003200d6
:1007600089017800030678008582550004003d0069
:100770000003fd008103fd008502ea008b85420035
:10078000840f720002003b0060001000e08018003f
:100790006011b8000005eb007a28e1000a0039007a
:1007a00006007800c75ddd00f707b200878075009e
:1007b0002d003700828171000a0178006105600018
:1007c0008180d1000080d3008502e900f9ff3b0061
:1007d000060440008784480002003b0060041400c7
:1007e000e0841c000988a300070032008a817100a0
:1007f00082817100610164008904d1000884d30002
:100800008b05e800170037000978a30013003a00b1
:100810000b00e000130034008b05e90008044400dd
:1008200089844c000a4474000978a3000d003a0042
:100830000b00e000070034008b05e90008044400c9
:1008400089844c0001003a000b0020000978a300c5
:10085000f7ff32000001eb000200370082817100d7
:100860000a0178008e0007000cf0a70001f0a0003c
:10087000d70037006420e10002003a00838f6c004b
:10088000d70033000801be000200be00d0003700d0
:10089000889fbe008a9fbe008c1f7800bb000700a7
:1008a000c200330003866c006450e1002e00320069
:1008b0006420e100330032006150e1002f0032007b
:1008c0006120e1003100320085855500eb07b00062
:1008d0000900200008042000050037000804440037
:1008e00089844c000a0031000603430087834b00d3
:1008f0000001530081815b00f8ff33000203be005a
:100900000800a0000804440089844c00f6ff390068
:10091000c639dd008301730001003200130020009e
:100920008904d1000884d3000998a300050032008f
:100930000800a7000300a0008904d1000884d300a8
:100940008b05e8008904d1000884d3000001eb0086
:100950000281d2005200070001f0a1000cf0a700b4
:1009600001f0a0009a0037006420e1009c003200f2
:100970000801be000200be00f7ff37006120e10061
:10098000970032006000b800f3ff3700000020003d
:1009900001f82700f0ff370014002000c7003700df
:1009a000f4ff2f00c50037000001be006200070001
:1009b0000470a70003f0a1006509b1001600320021
:1009c0000d0035006828e10006003500f0ff2f001b
:1009d000f1ff27000300e00013003b0001002800a6
:1009e0000000050000004000818048008502e90009
:1009f000fcff3a0008003700f88f420002003c007c
:100a00008000eb00000005008100d1000080d300d1
:100a10008502e800fcff3a000300e00002003b0012
:100a200060001000e0801800000006000001be0019
:100a3000410007000470a70003f0a10003f8a30021
:100a400013003a006509b1001000320009003500ba
:100a50006928e100020035000100280000000500bf
:100a600000004000818048008502e900fcff3a0058
:100a700000000600f88f4200050035008100d1001b
:100a80000080d3008502e800fcff3a000000060069
:100a90008000eb00000005006011b800a2003700e4
:100aa00081002000618055000b003d000b002000fc
:100ab00061fe2f000100e1001d0034008281710001
:100ac000610164008904d1000884d3000000e800bb
:100ad000faff3a007100200061006400030070001a
:100ae000020060000900320061044400e0844c0010
:100af0000988a500050032008b05e8006808e100c0
:100b000002003a008904d1000884d300f20f2000cb
:100b10000258e10005003d00c75ddd00f907b200a5
:100b20008980750008007800000006000bf8270097
:100b30008b00780000000500c70ade00f107b20054
:100b4000f50fb20008003200e1cf4200020032008f
:100b50000170a00024000500810f70000100320028
:100b60000408050044000500810f700002003a00ef
:100b7000140005008502e9000000400081c0480023
:100b8000fcff3b000170a000240005000004be0033
:100b9000e9ff07000003be000405be000200be001e
:100ba000e5ff0700844f7500000006000200be004c
:100bb0006450e100050036006420e10002003600c8
:100bc0000968a30001003a000800be000160a0000f
:100bd0004f0678004f05be004f04be00000006001f
:100be000f0ff2f00f1ff2700f9ff3700889fbe00bc
:100bf0008a9fbe008c1f7800e4ff0700ebff3300e4
:100c000003866c006450e100240032006420e1009f
:100c1000270032006150e100220032006120e10033
:100c2000210032008b854200eb07b1000134b8008f
:100c3000003ab8000804420089844a00013ab8002a
:100c40000030b8008880400009014a0004003300e9
:100c50000000400081804800020149008b05e90046
:100c6000c909dd008301700001003200130020007b
:100c7000c814de004814dd004709de001200b2008f
:100c8000c808de000884700085ff070001f0a1009d
:100c90000cf0a70001f0a000cdff37006120e100bb
:100ca000cfff32000801be000200be00f7ff370090
:100cb0006150e100fcff3a00c9ff3700889fbe0089
:100cc0008a9fbe00841f7800b0ff07004f007800a5
:100cd00011003300f0ff2f00838f6c0006003b00f3
:100ce000040565000a00a7000800370009f0a60007
:100cf0001000200008003700820f5400838f5c0032
:100d0000030039001000200001003e000000200018
:100d100009f0a7000000ea004f05be004f04be0026
:100d20000000e00000000600889fbe008a9fbe0011
:100d300000827000040271000482710026003200fb
:100d40000004be000200be006011b8006b09200064
:100d5000950220000182cf000a0039000541b10050
:100d60000082cf00070039000541b1000982cf00a1
:100d7000040039000541b1000882cf0001003900ac
:100d80000541b10005425200120032000a003b004a
:100d900082817100610164008100d1000080d30074
:100da0008984d3000884d3008b05e8000442e8005e
:100db000f7ff3a00070037000804440089844c001c
:100dc00000004800818048008b05e9000442e900ea
:100dd000f9ff3a0032ff07004f05be004f04be0086
:040de0000000060009
:020000040000fa
:100de4000600fa00881f7800a3040700e404070043
:100df400d6020700bc020700530307009201070054
:100e04005704070064cea80064eea800254ea8008d
:100e140001003700000000008f040700e14f50007c
:100e2400fcff3a009004070087040700000f7800d5
:100e34009e00780064804000100078008000eb0081
:100e440014ff0700323323003305240066ff070034
:100e540002002000035824008cfe0700d2cc2c0092
:100e6400c304240060ff07001007980021079800be
:100e74001e019000ae01900000002000812024009b
:100e840082fe070002002000030a240021fe07005e
:100e9400b0818800c18188001e80e80010007800bd
:100ea4008000eb00fbfe07003233230033052400ef
:100eb4004dff0700020020000358240073fe0700c2
:100ec400d2cc2c00c304240047ff0700100798006d
:100ed400210798001e019000ae0190000000200040
:100ee4008120240069fe070002002000030a240078
:100ef40008fe070090818800a18188001e00780008
:100f0400100078008000eb00e2fe0700323323007b
:100f14003305240034ff0700020020000358240096
:100f24005afe0700d2cc2c00c30424002eff070075
:100f340010079800210798001e019000ae01900050
:100f4400000020008120240050fe07000200200041
:100f5400030a2400effd0700708188008181880066
:100f6400b0818000c181800018c0b300020020005d
:100f7400031f240087fe07000000e0000100340086
:100f84000044eb000804e0000200320064cea80034
:100f94000100370064cea90090818000a181800007
:100fa40018c0b30002002000031f240079fe0700cc
:100fb4000000e000010034000044eb000804e000fd
:100fc4000200320064eea8000100370064eea900bc
:100fd400708180008181800018c0b300020020006d
:100fe400031f24006bfe07000000e0000100340032
:100ff4000044eb000804e00002003200254ea80083
:1010040085ff3700254ea90083ff37000000fa0052
:101014001ad0bf000080fb00cf80de00b2002000a9
:1010240003002000820f5000838f580060003e00b0
:10103400000601000b003700140037001d003700c4
:10104400270037002800370031003700320037000e
:101054003b0037003c0037004600370047003700ac
:10106400510037000e30ef001030ef000001eb00ac
:101074006000b80069010700120020006000b80099
:101084006601070010c0b3001af0b7007280800038
:1010940083808000803e200001002000800f5100ea
:1010a400818f59004500360020c0b3001af0b70004
:1010b400430037000001eb0000002000011f240062
:1010c400560107001200200000002000011f240028
:1010d4005201070030c0b3001af0b70038003700df
:1010e40039000700360037000001eb000000200043
:1010f400011f240049010700120020006000b8000d
:101104004601070050c0b3001af0b7002c003700a6
:101114002d0007002a0037000001eb006000b80032
:101124003e0107001200200000002000011f2400df
:101134003a01070070c0b3001af0b700200037006e
:10114400210007001e0037000001eb000000200012
:1011540001172400310107001200200000002000c4
:1011640001172c002d01070090c0b3001af0b7003e
:101174001300370014000700110037000001eb00d2
:101184000000200001172c00240107001200200099
:10119400000020000117240020010700b0c0b300a4
:1011a4001af0b700060037000700070004003700f4
:1011b4001a70ef000000000001003700000000007a
:1011c4000080fa00000006000200fa00881f780080
:1011d4000040eb00004f7800708180008181800026
:1011e40018c0b30002002000031f2400e9fd07001b
:1011f4000000e000010035000044eb000804e000ba
:101204001900320090818000a181800018c0b300d1
:1012140002002000031a2400e0fd07000000e000a3
:1012240001003c000044eb000804e0000e00320022
:10123400b0818000c181800018c0b300020020008a
:10124400031f2400d5fd07000000e00001003c005e
:101254000044eb000804e0000300320020c0b300a7
:10126400004f780055003700708180008181800034
:1012740018c0b30002002000031f2400c7fd0700ac
:101284000000e00001003c000044eb000804e00022
:101294001900320090818000a181800018c0b30041
:1012a40002002000031a2400bcfd07000000e00037
:1012b40001003c000044eb000804e0000e00320092
:1012c400b0818000c181800018c0b30002002000fa
:1012d400031f2400affd07000000e00001003500fb
:1012e4000044eb000804e0000300320010c0b30027
:1012f400004f78003100370090818000a181800088
:1013040018c0b30002002000031a2400a1fd070046
:101314000000e000010035000044eb000804e00098
:101324000300320030c0b300004f780023003700c0
:10133400708180008181800018c0b3000200200009
:10134400031f240095fd07000000e00001003c009d
:101354000044eb000804e000180032009081800093
:10136400a181800018c0b30002002000031a2400e9
:101374008afd07000000e00001003c000044eb008f
:101384000804e0000d003200b0818000c1818000bb
:1013940018c0b30002002000031f24007ffd0700d3
:1013a4000000e00001003c000044eb000804e00001
:1013b400020032000040eb00004f78001e4078002d
:1013c4000004e00003003a0020c0b3001bf0b700a3
:1013d400110037001e407800e24f500003003a002d
:1013e40040c0b3001bf0b7000b0037001e4078006c
:1013f400e14f500003003a0060c0b3001bf0b70097
:10140400050037001e407800e34f500002003a0008
:1014140080c0b3001bf0b7001bd0bf008080fb006e
:101424001ad0bf000080fb000000e900808f50004c
:10143400020032001bd0bf001af0b7004f0478003e
:101444000080fa00000006000000fa00116080002d
:1014540080ff2f00008060001060880000fa2000e8
:101464002060880023aca800238ca80011618000b0
:10147400f03f2f000080600000a0a00010618800f1
:101484003000200020618800c3aca800c38ca800f1
:1014940011668000f03f2f000080600000a0a000d3
:1014a40010668800300020002066880001eca80047
:1014b4000080fa00000006000600fa00881f780089
:1014c400008fbe00220798002e009000e10f50000c
:1014d40028003a001e0178009e01900012818800c5
:1014e4002381880018c0b3006011b8001e00780082
:1014f4009e00900029fd07000000e00001003d006f
:101504000044eb000804e0000d00320023cca900e5
:1015140023eca80015eea800108180002181800032
:101524000200200003222400affd0700050207008b
:101534003dfd07000000780030618800340037006a
:1015440023cca80023eca90015cea80010818000ac
:10155400218180000200200003222400a2fd070054
:10156400f801070030fd07000000780030618800b2
:10157400270037001e0178009e01900052818800e8
:101584006381880018c0b3006011b8001e007800a1
:101594009e00900001fd07000000e00001003d00f6
:1015a4000044eb000804e0000d003200c3cca900a5
:1015b40024eea800c3eca800508180006181800063
:1015c400020020000322240087fd0700dd0107003c
:1015d40015fd070000007800306688000c00370015
:1015e400c3cca800c3eca90024cea800508180007d
:1015f4006181800002002000032224007afd07009c
:10160400d001070008fd070000007800306688005c
:101614004f0478000080fa00000006000600fa007b
:10162400008fbe00220798002e009000e10f5000aa
:1016340005003a001e0178009e019000f2808800a7
:1016440003818800050037001e0078009e0090008a
:1016540001f0a20030818800418188000080fa00f6
:10166400000006000000fa00889fbe00548180003c
:1016740065818000308180004181800018c0b30002
:101684000001be000400be00c2fc07000000e00030
:10169400010035000044eb000804e0000d003200b6
:1016a40038818000498180005481800065818000f8
:1016b400b0808000c18080000001be000400be0034
:1016c40015fc07000801be00cc010700508188000a
:1016d40061818800548180006581800030818000b0
:1016e4004181800018c0b3000001be000400be00a8
:1016f400aafc07000000e00001003c000044eb00ed
:101704000804e0000d003200388180004981800027
:101714005481800065818000b0808000c180800099
:101724000001be000400be00fafb07000801be0071
:101734009a010700508188006181880050818000ef
:101744006181800018c0b3006011b80093fc0700e9
:101754000000e00001003c000044eb000804e0004d
:1017640004003200c3cca90024eea800c3eca800f6
:1017740003003700c3eca90024cea800c3cca80002
:1017840050818000618180006e010700020020000a
:101794000322240014fd0700a3fc070000007800c6
:1017a400306688001481800025818000f0808000ec
:1017b4000181800018c0b3000001be000400be0017
:1017c40074fc07000000e000010035000044eb0059
:1017d4000804e0000d003200f880800009818000d8
:1017e4001481800025818000b0808000c180800049
:1017f4000001be000400be00c7fb07000801be00d4
:101804007e010700108188002181880014818000f6
:1018140025818000f08080000181800018c0b30021
:101824000001be000400be005cfc07000000e000f4
:1018340001003c000044eb000804e0000d0032000d
:10184400f880800009818000148180002581800057
:10185400b0808000c18080000001be000400be0092
:10186400acfb07000801be004c0107001081880092
:1018740021818800108180002181800018c0b3007c
:101884006011b80045fc07000000e00001003c00c6
:101894000044eb000804e0000400320023cca9005b
:1018a40015eea80023eca8000300370023eca900e0
:1018b40015cea80023cca8001081800021818000cf
:1018c400200107000200200003222400c6fc0700b8
:1018d40055fc070000007800306188004f04be000a
:1018e4000080fa00000006000000fa0013e1a900dd
:1018f40011e1a9001061a8001021a900810880004d
:10190400f0fc2f0000806000800888000a21ef00ae
:101914000621ef00202620007008880000a0250082
:10192400600888002142800080ff2f000080600052
:101934000000a000204288000108a9002108a80096
:1019440011e1a8000080fa00000006000000fa007f
:1019540005e1a9000421a90000002000812424003d
:10196400050007000068a9002068a80005e1a80098
:101974000080fa00000006000400fa00881f7800c6
:10198400008fbe0021088000f0fc2f000080600062
:10199400200888001e0178009e019000006829003c
:1019a40081c12400b9fb070018c0b30002f02f0066
:1019b400f3772400f9fb07000000e00001003c007d
:1019c4000044eb000804e0005400320021088000c9
:1019d400f0fc2f00008060000040a0002008880078
:1019e4001e0178009e0190000068290081c1240036
:1019f400a6fb07000200200003102400a3fb07003d
:101a040018c0b30002f02f00f3772400e3fb0700b3
:101a14000000e00001003c000044eb000804e0008a
:101a24003200320021088000f0fc2f0000806000aa
:101a34000050a000200888001e0178009e0190003c
:101a44000068290081c1240090fb070002002000e7
:101a5400032824008dfb070018c0b30002f02f00f8
:101a6400f3772400cdfb07000000e00001003c00f8
:101a74000044eb000804e00010003200210880005c
:101a84000003200001007000200888001e01780077
:101a94009e0190000068290081c124007bfb07009f
:101aa400020020000338240078fb0700bdfb070078
:101ab4000000780010088800200037001e0178001c
:101ac4009e0190000068290081c124006ffb07007b
:101ad40002002000032824006cfb0700b1fb070070
:101ae4000000780010088800140037001e017800f8
:101af4009e0190000068290081c1240063fb070057
:101b0400020020000310240060fb0700a5fb07006f
:101b14000000780010088800080037001e017800d3
:101b24009e0190000068290081c1240057fb070032
:101b34009cfb070000007800100888004f04780020
:101b44000080fa00000006000000fa001fe1a9006e
:101b54001e21a90090808000a1808000050007005c
:101b64000368a9002368a8001fe1a8000080fa0008
:101b7400000006000400fa00881f7800008fbe00f1
:101b8400f1088000f0fc2f0000806000f00888005d
:101b94001e0178009e0190000068290081c1240084
:101ba4003afb070018c0b30002f02f00f3772400bb
:101bb4007afb07000000e00001003c000044eb0059
:101bc4000804e00054003200f1088000f0fc2f000b
:101bd400008060000040a000f00888001e0178002a
:101be4009e0190000068290081c1240027fb0700a2
:101bf400020020000310240024fb070018c0b300d7
:101c040002f02f00f377240064fb07000000e000db
:101c140001003c000044eb000804e0003200320004
:101c2400f1088000f0fc2f00008060000050a0004c
:101c3400f00888001e0178009e01900000682900c9
:101c440081c1240011fb07000200200003282400a6
:101c54000efb070018c0b30002f02f00f377240036
:101c64004efb07000000e00001003c000044eb00d4
:101c74000804e00010003200f10880000003200096
:101c840001007000f00888001e0178009e01900099
:101c94000068290081c12400fcfa0700020020002a
:101ca40003382400f9fa07003efb0700000078001f
:101cb400d0088800200037001e0178009e019000a3
:101cc4000068290081c12400f0fa07000200200006
:101cd40003282400edfa070032fb07000000780017
:101ce400d0088800140037001e0178009e0190007f
:101cf4000068290081c12400e4fa070002002000e2
:101d040003102400e1fa070026fb07000000780016
:101d1400d0088800080037001e0178009e0190005a
:101d24000068290081c12400d8fa07001dfb0700c0
:101d340000007800d00888004f0478000080fa0082
:101d4400000006000400fa00881f7800008fbe001f
:101d540018c0b3006011b8001e0078009e00900007
:101d64000efb07000000e00001003d000044eb0012
:101d74000804e000030032001e0078009e0090007a
:101d8400030037001e0078009e00900001f0a200be
:101d94004f0478000080fa00000006000800fa00f2
:101da400881f7800008fbe00220798003307980030
:101db40018c0b3002e019000be0190001e007800f0
:101dc4009e009000f5fa07000000e00001003c00ce
:101dd4000044eb000804e000030032001e00780019
:101de4009e009000020037002e009000be0090007c
:101df4004f0478000080fa00000006000800fa0092
:101e0400881f7800008fbe002207980033079800cf
:101e140018c0b3002e019000be0190001e0078008f
:101e24009e009000dbfa07000000e000010035008e
:101e34000044eb000804e000030032001e007800b8
:101e44009e009000020037002e009000be0090001b
:101e54004f0478000080fa00000006000c00fa002d
:101e6400881f7800008fbe0022079800330798006f
:101e7400440798005507980018c0b3004e0190001d
:101e8400de0190001e0078009e009000c3fa070057
:101e94000000e00001003c000044eb000804e00006
:101ea400040032004e019000de019000028fbe005b
:101eb4000e00370018c0b3002e019000be01900040
:101ec4001e0078009e009000b2fa07000000e000b7
:101ed400010035000044eb000804e0000300320078
:101ee4002e019000be019000028fbe001e007800fb
:101ef4009e0090004f0478000080fa000000060065
:101f04000400fa00008fbe00b2fd200093042400f8
:101f14001e0078009e0090005cfa0700020020007a
:101f24004333240030fb07000080fa000000060061
:101f34000400fa00008fbe00b2fd200093042400c8
:101f44001e0078009e00900027fb0700020020007e
:101f5400433324004dfa07000080fa000000060015
:101f64000000fa0021e3a9002143a8000119800020
:101f7400f0cf2f0000806000001988002043a900e2
:101f840001198000000e2000010070000019880073
:101f940011198000f0ff21000080600010198800f2
:101fa4002343a80011198000f0cf2f0000806000a7
:101fb400101988001119800030f82f00008060008b
:101fc4000030a000101988002203a9002223a900d0
:101fd40025e3a900f0c0b30024e3b7002119800071
:101fe400f00f2e008080600000f0200001007000df
:101ff400201988003303a9002e0ea8002f6ea80014
:102004006f2ea80030c3a8003163a8002e03a800d7
:102014004119800000fc2f000080600040198800f6
:1020240028e3a90001a8a90021a8a80021e3a80089
:102034000080fa00000006000000fa002023a80037
:102044000080fa00000006000000fa0020002100d1
:102054000080fa00000006000000fa000ad0bf0069
:102064000080fa00000006000000fa000a70ef0089
:102074000080fa00000006000000fa00f0032000cf
:10208400303a8800213a8000f0f32f00008060008d
:10209400203a8800213a800000fe2f000080600072
:1020a4000000a000203a88001200200080072000d1
:1020b400a109200033742000804978008149780008
:1020c40082497800103a8000000178000200a000e4
:1020d40060042000710520002374200080497800ea
:1020e400814978008249780000000000113a80009c
:1020f400000027008080600000002100808f5000d5
:10210400faff3a0000000000113a800000022000ab
:10211400008060000000e000fbff32000080fa0055
:0421240000000600b1
:020000040000fa
:102128001a10000002000000800000000c100000df
:1021380006000000800000001210000004000000eb
:102148008200000000007a00440000001c1000001b
:102158001e000000800000001610000004000000af
:10216800820000000000a0004000000000100000f5
:0c2178000c0000008000000000000000cf
:020000040000fa
:102184000000fa000e2eef001e2eef002e2eef00a0
:102194003e2eef004e2eef005e2eef006e2eef006f
:1021a400214ea90060cea90060eea90011cea900bd
:1021b40011eea90020cea90020eea9000080fa00ab
:0421c4000000060011
:020000040000fa
:02000004000af0
:04afe000cfff00009f
:020000040000fa
:02000004000af0
:04afe400ffff00006b
:020000040000fa
:02000004000af0
:04afe8007fff0000e7
:020000040000fa
:02000004000af0
:04afec005fff000003
:020000040000fa
:02000004000af0
:04aff00038ff000026
:020000040000fa
:02000004000af0
:04aff400ffffff005c
:00000001FF
